S01100004C696665447265616D2E73726563AA
S3150200000020040022852800025D27000281280002C2
S31502000010812800028128000281280002812800022C
S31502000020000000000000000000000000812800021D
S3150200003081280002000000008128000281280002B7
S31502000040F51100028511000279120002BD120002AA
S31502000050550A0002AD090002E50A0002310B000250
S315020000603D1E000255190002E91A00020D1C00028B
S30902000070F11C000275
S309020000741040000030
S315020000780348044B834202D0034B03B11847704727
S31502000088040000220400002200000000064B074973
S31502000098C91A891048BF0131491003D0044B0BB164
S315020000A801481847704700BF0400002204000022D6
S315020000B80000000010B5064C237843B9FFF7D8FFB5
S315020000C8044B13B10448AFF300800123237010BD1B
S315020000D8500400220000000028F1C90208B5054BA9
S315020000E81BB105490548AFF30080BDE80840FFF794
S315020000F8CDBF00BF000000005404002228F1C90247
S31502000108704700BF10B5274B82B0D3E901121868B1
S315020001181268904700B1FEE700F0ECF8044600B119
S31502000128FEE700F093F80DF102010A208DF802406D
S315020001388DF8034000F05EF80DF103010B2000F084
S3150200014859F804229DF802309DF80310A3F1260EF1
S31502000158DEF1000C4CEB0E0C8DF8051002200DEBAF
S3150200016802018DF807408DF804308DF806C000F0BC
S31502000178CFF80D4C01224FF48571204601F0BEF8E6
S315020001884FF47A71322002F0A1FA00224FF48571F7
S31502000198204601F0B3F84FF47A7140F2B63002F015
S315020001A895FAE7E79C2B000270040022022800D089
S315020001B870470249024801F081B900BF0C2C0002BF
S315020001C8700400220379032B0CD0022B06D0012BD4
S315020001D803D10649064A0B70137070470122044B75
S315020001E81A7070470122014B1A7070476D0400227B
S315020001F86C04002230B58C460546002383B0104CA9
S31502000208012210480DF107018DF807502370654643
S3150200021801F00CFA90B92378002BFCD00121642056
S3150200022802F054FA0023084C012229460548237095
S3150200023801F014FA10B92378002BFCD003B030BDB4
S315020002486D040022D80400226C04002210B5002492
S3150200025882B040F20911224622488DF802408DF8F2
S31502000268034001F04BF8224640F209711D4801F09D
S3150200027845F84FF47A710A2002F028FA012240F270
S315020002880971184801F03AF84FF47A71142002F00D
S315020002981DFA1549154801F017FB00B1FEE740F2B1
S315020002A8FF1C134C034620700222104801A9ADF820
S315020002B804C001F0BBF910B92378002BFCD04FF427
S315020002C87A71052002F002FA0DF102010A20FFF7FF
S315020002D891FF0DF103010B20FFF78CFF00BF02B05F
S315020002E810BD00BF70040022DC2B0002D8040022D5
S315020002F86D04002208B5054BD3E901121868126885
S315020003089047003818BF012008BD00BF642B0002C1
S315020003182DE9F0411446ADF5047D80460E4640F2BD
S315020003280312002143A802F003FCFF2C4AD8002C32
S3150200033838D1A5230427032602AD85F80180AC70BF
S315020003482B702A46002346F001E012F8011B4B40A7
S315020003580FF005C8002240F204612348AB5500F0AD
S31502000368CDFF0722214B00929C681868E4683B4639
S31502000378294643AAA047044648BB4FF47A7101208E
S3150200038802F0A4F9012240F20461174800F0B6FF10
S3150200039801204FF47A7102F099F920460DF5047D91
S315020003A8BDE8F081F6B1A523314622460DF10B00D0
S315020003B802AD85F80180AC702B70271D02F0C0FBD8
S315020003C8E61CBEE704200DF5047DBDE8F081012296
S315020003D840F20461044800F091FF03200DF5047D04
S315020003E8BDE8F0810220D9E770040022642B0002DE
S315020003F808B5FFF787FE002008BD00BF03460020A8
S31502000408C3E90612704700BF844610B4406A83687F
S3150200041823F440138360DCF82440A36C5800FCD50F
S31502000428A36823F01003A360DCF82440237FC3F3F8
S315020004380010DB06FAD4CCE90412A36843F01013C1
S31502000448A3605DF8044B704784460020CCE90B3262
S31502000458CCF82810704700BF4FF0FF330020C1E9DF
S31502000468003370478B0784461DD5426A936823F486
S3150200047840139360426A936C5800FCD5936823F044
S3150200048810039360DCF82400037FC3F30012DB0633
S31502000498FAD41046CCF81420CB0703D50023184605
S315020004A8CCF81C3070470620F6E700BF0346002248
S315020004B810B4DC6910460C60DA615DF8044B7047CB
S315020004C80620704730B40124164D530902F01F0C5A
S315020004D8203304FA0CF445F82340BFF34F8FBFF3D9
S315020004E86F8F114B02F5C65C53F82C4024F4803406
S315020004F843F82C4053F82C300901002AC9B207DB0D
S315020005080A4B154485F8001343F8220030BC70479D
S31502000518074B02F00F0423441976044B43F82200D2
S3150200052830BC704700E100E0006000407805002218
S31502000538FCEC00E0F0B5C46A85B005460F46944661
S315020005486E46B4B194E80F0086E80F002B6A20467F
S315020005581B78A760236084F804C02B6BE360AB6A40
S315020005689847EC6A1CB196E80F0084E80F0005B0BC
S31502000578F0BD3446EAE700BFF8B5394B42689A42FD
S315020005886BD10446426A936823F440139360426A25
S31502000598936823F010039360426A137FC3F300152E
S315020005A8DB06FAD40121236A2E4A93F90730580941
S315020005B803F01F03203001FA03F342F82030BFF399
S315020005C84F8FBFF36F8F236A93F90930580903F0E7
S315020005D81F0301FA03F3203042F82030BFF34F8F8E
S315020005E8BFF36F8F606A836823F480338360236A5C
S315020005F893F90530580903F01F0301FA03F3203073
S3150200060842F82030BFF34F8FBFF36F8F236A93F9F7
S315020006180B30580903F01F0301FA03F3203042F89E
S315020006282030BFF34F8FBFF36F8FEFF3108681F33E
S3150200063810884FF00043276A0B4A97F800C05068A3
S3150200064823FA0CF30343536053681E2002F03EF864
S3150200065886F3108865602846F8BD0720F8BD00BFF6
S315020006684249435300E100E000302040002370B5C0
S31502000678026AD56983606B7C03B970BD184B044660
S3150200068893F8543003F00F03072B24D8DFE803F05E
S31502000698040404211F191B1D01269E40104B93F8C2
S315020006A8550000F00F0001F0ABFFB0FBF6F00D4B62
S315020006B81A686B7C02FB03F3B3FBF0F30133A36006
S315020006C870BD0326EAE70526E8E70A26E6E70826CE
S315020006D8E4E70626E2E71026083B9E40DEE700BF6F
S315020006E800E00140B8050022F8B5002704460E4688
S315020006F8416A8D6825F4441222F011028A60076164
S31502000708FFF7B4FF636A326825F440151A61636A13
S3150200071838469D60F8BD00BF0620704700222DE9C5
S31502000728F04101270B78027003F5800303F556534F
S315020007381B02436201624B690D4683628B6904465A
S31502000748C0E90B238378CE6967F3010383704B787C
S31502000758934214BF3A460222837862F301038370F6
S3150200076891F90B20897AFFF7ADFE95F905202979CB
S31502000778FFF7A8FE95F90720A979FFF7A3FE95F9D1
S315020007880920297AFFF79EFEEFF3108887F310886F
S315020007984FF000412A787B4BD1405A6822EA01027F
S315020007A85A605B681E20394601F090FF88F310886C
S315020007B84FF48062636A9A606B78E978EA691B0289
S315020007C8890301F4804103F440730B43117850689E
S315020007D8090601F040710B435178C90389B20B43EC
S315020007E8517B490501F400110B43616A43F48053B6
S315020007F84B611378991EB94240F2BD800368616A5B
S315020008080B61117BAB7801F0030141F0300133B182
S31502000818022B14BF4FF440734FF480731943937835
S3150200082800201B0703F080530B43616ACB60012348
S31502000838616A886129788B40C3F3090313B1636A35
S31502000848514959620025937BD17B127C01F01F0125
S3150200085803F0010302F01F0243EA0123616A43EA35
S3150200086802430B632046C4E90455C4E90655FFF75B
S31502000878FDFE7089626A4549A0819166226A444BE7
S3150200088892F9052002F5C65153F8210065F3104086
S3150200089843F8210053F82110BFF35F8F012102F0BC
S315020008A81F005209920002F1604202F5614201FA02
S315020008B800F0C2F880011060226A92F90B2002F554
S315020008C8C65053F8206065F3104643F8206053F883
S315020008D82000BFF35F8F02F01F005209920002F157
S315020008E8604201FA00F002F56142C2F88001106026
S315020008F8226A92F9072002F5C65053F8206065F37A
S31502000908104643F8206053F82000BFF35F8F02F0C9
S315020009181F005209920002F1604201FA00F002F544
S315020009286142C2F880011060226A92F9092002F532
S31502000938C65053F8206065F3104643F8206053F812
S315020009482030BFF35F8F53099B0002F01F0203F1A9
S315020009586043914003F56143C3F8801119600D4A5B
S31502000968636A9A60626A137FDB07FCD50A4B00202A
S315020009786360BDE8F0810949022B094B18BF0B4693
S315020009883DE700BF0030204000001F1F1000079DF2
S3150200099800600040110401004249435304FF00FF6E
S315020009A824FF00FF38B5EFF30383103B254A5BB2F9
S315020009B803F5C65152F8210020F4803042F821008E
S315020009C852F82120204A52F82340236A1B69B3B100
S315020009D8636903B138BD636A9D68A06825F480150A
S315020009E845F4001518BB00219D60A36A2161002BFE
S315020009F8F0D02046BDE838408022FFF79BBD6269E9
S31502000A08636A002AE8D0A278216902F00302022A60
S31502000A1811D00A781A71A278D4E9041302F00302F3
S31502000A289B1A1144C4E90413002BD3D1D3E701F06E
S31502000A3847FE636AD7E70A8822F4DC4292B25A6012
S31502000A48E9E700BF006000407805002210B582B0D1
S31502000A58EFF30383103B1F4A5BB203F5C65152F804
S31502000A68210020F4803042F8210052F821201A4A47
S31502000A7852F82340A27802F00303022B636A0CBFE2
S31502000A8819681978E3690CBFC1F30801C9B2019163
S31502000A9843B9A36AB3B10422204602B0BDE81040A6
S31502000AA8FFF748BD02F0030201A9A06902F048F85F
S31502000AB8D4E90621A37803F003031A44C91AC4E940
S31502000AC8062109B102B010BDA36A002BFAD0012291
S31502000AD8E2E700BF006000407805002210B5EFF398
S31502000AE803830F4A103B5CB252F82400426A9368A9
S31502000AF823F4401323F010039360836A1BB1022286
S31502000B080021FFF717FD074A04F5C65352F82310CA
S31502000B1821F4803142F8231052F8233010BD00BF69
S31502000B28780500220060004038B5EFF303831D4ABA
S31502000B38103B5CB252F824008378456A03F003033B
S31502000B48022B0CBF29682978AA6C08BFC1F30801D1
S31502000B58C2F30073C2F3006C4FEA031343EA4C1361
S31502000B68C2F3C06243EAC20C18BFC9B2DB066246C8
S31502000B7804D5AB6C1B0458BF4CF04002AB6E43F075
S31502000B88C853AB66836A0BB1FFF7D4FC064A04F571
S31502000B98C65352F8231021F4803142F8231052F832
S31502000BA8233038BD780500220060004084460020C4
S31502000BB8CCE90932CCF82010704700BF30B5436A39
S31502000BC885B004468C4601ADABB193E8070085E8CB
S31502000BD8070062681846127883F804C01A60A26A87
S31502000BE89A60236A9847636A1BB195E8070083E807
S31502000BF8070005B030BD2B46EBE700BF002238B52B
S31502000C08836804469A60436893F90220002A0EDB39
S31502000C1801213248530902F01F02203301FA02F277
S31502000C2840F82320BFF34F8FBFF36F8F636893F9A2
S31502000C380120002A0EDB01212848530902F01F026F
S31502000C48203301FA02F240F82320BFF34F8FBFF395
S31502000C586F8F6368012193F9043020485A0903F01B
S31502000C681F03203201FA03F340F82230BFF34F8FF5
S31502000C78BFF36F8F636893F903305A0903F01F03B2
S31502000C8801FA03F3203240F82230BFF34F8FBFF345
S31502000C986F8FEFF3108581F310884FF00043606879
S31502000CA80F4A0078C34050680343536053681E20B6
S31502000CB801F00CFD85F3108863685A6922B19368BE
S31502000CC810681B6A984763681B691BB19A6818689B
S31502000CD8136A98470020206038BD00BF00E100E093
S31502000CE80030204000222DE9F84F0B78416003F5C9
S31502000CF8800303F556531B0283608B690D46036214
S31502000D08CB690446C0E909234B698BB14FF400212C
S31502000D185A68126811605A68816812685160D3E984
S31502000D2801121868126890470646002840F0FE80AD
S31502000D382B6993B14FF000615A68126811605968BD
S31502000D48A268096804328A60D3E90112186812682F
S31502000D5890470646002840F0368141F2032662682B
S31502000D6840F20323507B116A002818BF3346507A93
S31502000D78967A012806BF43F000734FF08077002762
S31502000D88002E23F0010608BF3346D67A23F0020C5A
S31502000D98002E08BF63468E7843EAC61646F4403AE2
S31502000DA8002800F0C6804FF400284FF00009EFF340
S31502000DB8108B012181F310884FF000401378D84038
S31502000DC8874B5A6822EA00025A605B681E2001F0C5
S31502000DD87DFC8BF310880022A3689A60A268137FB1
S31502000DE803F0FF01002BFAD14FF0100C01207D4BC6
S31502000DF85362A3687C4A5E61A368C3F814A0A36819
S31502000E08C3F81090A368C3F80CC0A368C3F8188087
S31502000E18A3689A66A3681867A3689F6095F9013064
S31502000E28002B80F29D80714E95F90230002B25DB4E
S31502000E38AA7903F160411201D2B201F5614181F842
S31502000E4800236B4A46F8234003F5C65152F821009F
S31502000E5820F4803042F8210052F82120BFF35F8F38
S31502000E6801215A09920003F01F0302F1604202F5BA
S31502000E78614201FA03F3C2F880311360EB7995F9FE
S31502000E8803201B01002ADBB2C0F2988002F16041FE
S31502000E9801F5614181F80033554B46F8224002F5C7
S31502000EA8C65153F8210020F4803043F8210053F844
S31502000EB82130BFF35F8F012153099B0002F01F0205
S31502000EC803F1604303F5614301FA02F2C3F8802194
S31502000ED81A6095F904202B7A002A67DB1B0102F1B6
S31502000EE86041DBB201F5614181F80033404B46F8B7
S31502000EF8224002F5C65153F8210020F4803043F807
S31502000F08210053F82130BFF35F8F012153099B005B
S31502000F1802F01F0203F1604303F5614301FA02F28C
S31502000F28C3F880211A600026324B23603046BDE89A
S31502000F38F88F4B7891F8009003F003004FEA0929DD
S31502000F48C97849EA0059C3F3800349EA0319002913
S31502000F5843D001F1FF384FEA086848F4102826E71B
S31502000F686A7903F160471201204ED2B207F561474A
S31502000F7887F800231E4A46F8234003F5C65752F857
S31502000F8827C061F3104C42F827C052F82720BFF356
S31502000F985F8F03F01F025B099B0003F160439040D9
S31502000FA803F56143C3F8800118603DE7124902F070
S31502000FB80F001B01DBB201440B7697E70F4902F0DB
S31502000FC80F000B5468E76B69002BAFD09A68186854
S31502000FD8136A98473046BDE8F88F4FF40028E6E6CC
S31502000FE80030204000809F1F1000079D78050022D0
S31502000FF80060004053494353FCEC00E014ED00E066
S31502001008F8B51D4683689B6813F0110343D116464B
S31502001018C0E90533C0E903164268C5611369044687
S31502001028D3B145611369A8B25A681268D0815A6861
S315020010381268002931D04FF0020CD0786CF3830085
S31502001048D0705A6812685160D3E9011218680968A3
S3150200105852689047F0B96268536953B14EB1A561B7
S3150200106853693246996818688E68ABB20021B04750
S3150200107880B92369002B4CD063681A69002A4BD0C1
S315020010884FF01111A26893680B43936063681A695B
S3150200109862B10020F8BD0820F8BDD0782E4F61F362
S315020010A88300D0705A6812685760CDE75A69002AD9
S315020010B8EFD12269002AECD0012193F901302748A1
S315020010C85A0903F01F03203201FA03F340F82230CB
S315020010D8BFF34F8FBFF36F8F6369E269934209D2F9
S315020010E8D4E9021282B3D35C63F0FF034B606369EF
S315020010F8013363616268517A012914D092F9013089
S31502001108012203F01F0015495B09824041F823209A
S31502001118BFE74FF01011B5E75B691149002B18BFFD
S315020011284FF01111AEE7E1690129E7D99942E5D9EC
S31502001138D4E9022161B1CB5C63F0FF0353606369B2
S31502001148626801336361D9E76FF0FF034B60CEE74C
S315020011586FF0FF035360F2E71805002200E100E092
S31502001168110001008C46134600216246FFF748BF6C
S3150200117813460022FFF744BFFFF742BFEFF303838C
S31502001188103B184A5BB203F5C65152F8210020F407
S31502001198803042F8210052F82120134A52F82330AF
S315020011A85A69D9698A420AD2D3E90201A9B18A5C83
S315020011B862F0FF0242605A69D96901325A618A426B
S315020011C800D070471A69002AFBD19A68936823F4FB
S315020011D8801343F40013936070476FF0FF02426076
S315020011E8E9E700BF006000407805002210B4EFF37B
S315020011F80383103B1C4A5BB203F5C65152F8210021
S3150200120820F4803042F8210052F82120174A52F879
S3150200121823305969DA6991420AD2D3E90202F2B154
S31502001228525C62F0FF0242605969DA69013159611A
S315020012389969914207D298681A6900684C1C9C61A0
S315020012485054D3E90612914206D19A68936823F458
S31502001258881343F4001393605DF8044B70476FF0EC
S31502001268FF024260E0E700BF006000407805002206
S3150200127810B5EFF303830D4A103B5CB252F8240013
S3150200128801218268936823F4401323F011039360C3
S31502001298FFF794FC064A04F5C65352F8231021F4C4
S315020012A8803142F8231052F8233010BD7805002207
S315020012B80060004038B5EFF303834FF080750D4A9E
S315020012C8103B5CB252F8240004218268936823F426
S315020012D84413936083689D66FFF770FC064A04F51B
S315020012E8C65352F8231021F4803142F8231052F8DB
S315020012F8233038BD78050022006000400020012313
S315020013088242CAB203FA02F39AB24FEA034308BF09
S315020013181A460B0A5B0103F1804303F580039A60C0
S31502001328704700BF2DE9F84F0388DBB14FF0000A7A
S3150200133880464FF00109DFF8D4B00024314D4FEA58
S31502001348CA07D8F8043035F8022BD9198988914288
S315020013580AD00134032CF4D1B8F800300AF1010A94
S315020013685345EAD8BDE8F88FDB5909FA04F603F0C3
S31502001378B853B3F1807F244BF6B293F84C2C12D0B3
S31502001388324230D104F120021BF81230DB09E0D0D8
S315020013981BF81230012123F08003C8200BF8123003
S315020013A801F094F9D5E7324210D004F120021BF875
S315020013B81230DB09CDD11BF81230012143F080032C
S315020013C8C8200BF8123001F081F9C2E7012001F0BA
S315020013D829FA0D4B012093F84C2C324383F84C2CF6
S315020013E801F0F0F9E1E7012001F01CFA064B0120B1
S315020013F893F84C2C22EA060283F84C2C01F0E2F907
S31502001408C0E700BF4031000200E001400020204052
S31502001418F8B50646FFF786FFEFF31082012383F33A
S315020014281088234F3B681BB9402022490B75087563
S315020014383B6801333B6082F31088338800211BB373
S315020014481D4D08E01B01134445F82340328801313B
S315020014588BB29A4218D9736853F8314003EBC1022A
S315020014689288E0034FEA1223D2B2EBD502EB0310BD
S3150200147855F820E024F4803C2EF4803E45F820E01E
S315020014881B0145F820C0DEE7EFF31082012383F340
S3150200149810883B6813B13B68013B3B603B681BB94C
S315020014A8802004490B75087582F31088F8BD00BFC1
S315020014B874050022000D40400008404008B5034B61
S315020014C803600846FFF7A4FF002008BD54524F5098
S315020014D830B5836B83B004460A466D46A3B193E8DA
S315020014E8030085E80300E16B1A7119601846636BFD
S315020014F89847A36B1BB195E8030083E80300002312
S3150200150884F82B3003B030BD2B46ECE730B5454B9B
S3150200151883B01B6A01690193019B03F00F230193B0
S31502001528019A019D0B7C90F82C409CB9C2F30322C8
S31502001538DBB2A2EB156293409B0804D1082003B0E4
S3150200154830BD013BFAD04A78C2F3C014D209F8D1A9
S31502001558CC710169002390F826408569026880F8F3
S315020015682B30C56180F82D3080F8274080F82E3060
S3150200157880F8283080F82F30036280F83030546AB9
S31502001588227894F801E0012A14BF4FF0040C4FF0B8
S31502001598050C6279120142EA4E0294F806E042EA22
S315020015A8CE124CEA0202D2B2CA7001690A7942F034
S315020015B810020A7101690A7963F3C3020A710169A1
S315020015C80A7963F304120A710269E179137961F3FC
S315020015D8C71313710269537943F001035371036800
S315020015E893F90F30002B07DB012203F01F040E4983
S315020015F85B09A24041F82320BF210269537A03F00E
S31502001608F30353720369D97190F82C302BB1002376
S3150200161880F82C30002003B030BD022203695A70CC
S31502001628F8E700BF00E0014000E100E090F808C0DA
S31502001638C0E90512BCF1010F80F82A3008D1002250
S31502001648436880F826C05B0080F8243080F825209D
S31502001658002380F82930FFF759BF00BF90F808C069
S31502001668C0E90512BCF1010F80F82A300AD100221E
S31502001678436880F826C05B0043F0010380F82430F3
S3150200168880F82520012380F82930FFF73FBF00BFE5
S3150200169870B40024402203691C7003691A70026937
S315020016A813785B06FCD5C0231370036802695B6A6C
S315020016B8804D1B794FF0000C43F0E0031374036866
S315020016C802695B6AB324DB7843F0E0035374036868
S315020016D802695B6A9B781B0103F0700343F00803F7
S315020016E89370036802695B6A1E78012E5E7814BFDE
S315020016F80423052343EA4603DBB2D37003685B6817
S31502001708AB4214BF7722F72203695A71036983F839
S3150200171806C00369DC7191F911204B7B6245C0F260
S31502001728AA801B0102F16044DBB204F5614484F825
S315020017380033614C614B44F8220002F5C65553F852
S31502001748256026F4803643F8256053F82530BFF322
S315020017585F8F012553099B0002F01F0203F16043C4
S3150200176803F5614305FA02F2C3F880211A6091F97A
S315020017780F204B7B002AC0F295801B0102F16045BF
S31502001788DBB205F5614585F800334C4B44F8220077
S3150200179802F5C65553F8256026F4803643F82560C7
S315020017A853F82530BFF35F8F012553099B0002F0DA
S315020017B81F0203F1604303F5614305FA02F2C3F817
S315020017C880211A6091F910204B7B002A63DB1B01EA
S315020017D802F16045DBB205F5614585F80033374B02
S315020017E844F8220002F5C65553F8256026F48036D9
S315020017F843F8256053F82530BFF35F8F0125530957
S315020018089B0002F01F0203F1604303F5614305FAE8
S3150200181802F2C3F880211A6091F90E204B7B002A46
S3150200182831DB1B0102F16041DBB201F5614181F84E
S315020018380033224B44F8220002F5C65153F82140E0
S3150200184824F4803443F8214053F82130BFF35F8FE4
S31502001858012153099B0002F01F0203F1604303F5BD
S31502001868614301FA02F2C3F880211A609F220369D2
S315020018781A7070BC7047124C02F00F051B01DBB2DE
S315020018882C44237655E70E4902F00F051B01DBB2FD
S3150200189829440B76CDE70B4D1B0102F00F06DBB28E
S315020018A8AB559CE7074D1B0102F00F06DBB2AB55A1
S315020018B86BE700BF40420F00780500220060004037
S315020018C8FCEC00E014ED00E0F8B500250A781C4BA4
S315020018D8016013441B0203618B680E4643600B7B4F
S315020018E804460372CB6943630B6A80F82950C363C3
S315020018F880F82A50856380F82B50C0E90555C0E95F
S31502001908075580F82C50EFF31087012181F31088D0
S315020019180C4A33785068C3F1090301FA03F320EA43
S315020019280303536053681E2000F0D0FE87F3108825
S3150200193820463146FFF7ACFE034B2846E360F8BD66
S31502001948E0254000003020404349495210B582B094
S31502001958EFF30383103B5F4A5BB203F5C65352F8B3
S31502001968231021F4803142F8231052F82330EFF382
S315020019780383594A103B5BB252F8234094F82D3040
S315020019885BBBA369022B22D9E369012B0ED122691B
S31502001998137943F0100313712269137943F008038C
S315020019A813712269137923F01003137123685B6A92
S315020019B8DB79002B3ED101222369DB7CDBB28DF871
S315020019C807309DF8073084F82D2002B010BD226931
S315020019D8137943F040031371D6E7E369002BF4D079
S315020019E82268526AD279FAB9032B17D0022B26D06B
S315020019F8012B34D02269236AD17C6269D154D4E995
S31502001A0807320132013BC4E90732002BDDD12169D5
S31502001A180A7963F386120A7102B010BD2269137934
S31502001A2843F040031371E5E705212046FFF750FD11
S31502001A38E369D9E705212046FFF74AFDBBE7226994
S31502001A48137943F0100313712269137943F00803DB
S31502001A5813712269137923F010031371CAE794F8F4
S31502001A682A2072B322681D4892F90F20510902F002
S31502001A781F0203FA02F2203140F82120BFF34F8FEA
S31502001A88BFF36F8F04202169CA7942F08002CA71B6
S31502001A9821690A7942F010020A7121690A7922F04B
S31502001AA808020A7121690A7922F010020A7122696A
S31502001AB8507021694A7922F001024A7184F82C3061
S31502001AC898E708212269537A03F0F70353722369C8
S31502001AD859708FE7006000407805002200E100E0B7
S31502001AE810B5EFF30383103B434A5BB203F5C653C3
S31502001AF852F8231021F4803142F8231052F8233089
S31502001B08EFF303833D4A103B5BB252F8234094F845
S31502001B182730002B40D194F82930002B3BD123687B
S31502001B285B6ADB792BB194F82B3013B9236A002B45
S31502001B385CD1E3692169002B41D1CB79C02223F01C
S31502001B488003CB71216901E0013A02D0CB79DB0926
S31502001B58FAD12368284A93F9103003F5C65352F886
S31502001B68231021F4803142F8231052F823302368D7
S31502001B7893F91030002B09DB01215A09204803F09A
S31502001B881F03603201FA03F340F822302269D3793F
S31502001B9843F04003D37110BD94F82630032B1CD0B2
S31502001BA894F8242023699A7494F8282094F8273004
S31502001BB80132013B84F8282084F8273010BD236AB5
S31502001BC86269D35C8B74D4E907320132013BC4E9FA
S31502001BD80732002BDFD12169AFE794F82830022BB0
S31502001BE8DED194F83030002BDAD110BD052120461B
S31502001BF8FFF76EFC9DE700BF0060004078050022F3
S31502001C0800E100E038B5EFF30383344A103B5BB2D8
S31502001C1852F8234023685B6ADB79002B4BD194F890
S31502001C2829301BB194F82730012B52D0E369E3B16E
S31502001C382169C023CA7922F04002CA71216901E0EA
S31502001C48013B02D0CA795206FAD4EFF30383103B5A
S31502001C58234A5BB203F5C65352F8231021F48031A6
S31502001C6842F8231052F8233038BD94F82A203AB3A2
S31502001C78012022681B4D92F90F20510902F01F021A
S31502001C88203100FA02F245F82120BFF34F8FBFF345
S31502001C986F8F4FF0040C2169CA7942F08002CA712B
S31502001CA8226982F801C021694A7963F300024A71FE
S31502001CB884F82C00BCE705212046FFF709FCAEE7AD
S31502001CC808212269537A03F0F7035372236959707C
S31502001CD8AEE794F83030002BAAD0A7E778050022A1
S31502001CE80060004000E100E038B5EFF303834F4A95
S31502001CF8103B5BB252F823000269537A517ADC062A
S31502001D0801F0E00151725FFA83FC03F003022CD55D
S31502001D180369597849064ED40024012580F82B50C8
S31502001D28DC710168FFF7B4FCB32290F826308169AA
S31502001D3880F82830036980F82C400162C46180F873
S31502001D482A402946DA71FFF7C3FBEFF30383103BF8
S31502001D58374A5BB203F5C65352F8231021F4803191
S31502001D6842F8231052F8233038BD002A5CD11CF001
S31502001D78080F11D0C369002B45D190F82B30002BE0
S31502001D8841D1B32290F829100369C1F10301C9B2FE
S31502001D98DA71FFF79DFBD8E790F82C200CF00403C4
S31502001DA842B3002BD1D0C369002B3BD190F82B301C
S31502001DB8002B37D1E5E7002AAED15A78C2F3801153
S31502001DC85206D4D5082280F82B105A700368016986
S31502001DD85A6A94791378527943EAC41343EA021386
S31502001DE843F00203DBB2CB700269537943F0010375
S31502001DF85371AAE7002BA8D003685B6ADB79002B2C
S31502001E08A3D00421C5E70023B32190F8265084699C
S31502001E18026980F82C3080F828500462C36180F881
S31502001E282A30D1710121B4E7036975E778050022E2
S31502001E3800600040F0B5234B8BB05D6FEA435A67EA
S31502001E48EFF30383103B204A5BB203F5C65152F8FF
S31502001E58210020F4803042F8210052F821201B4A42
S31502001E6852F8234063694BB30021226902912A4042
S31502001E78E0690092A769A2680191CDE90320FFB142
S31502001E88BC463E46BCE80F00EE4605AD0FC5DCF87B
S31502001E9800302B60BEE80F000FC6DEF80030CCF823
S31502001EA80030636938469847A4693CB10DF1140CB1
S31502001EB8BCE80F000FC4DCF8005025600BB0F0BD7B
S31502001EC86F46EFE700803440006000407805002244
S31502001ED81D4A92F82630928CDBB202F00F02A2F16A
S31502001EE8080103292BD8DFE801F020160C0217494E
S31502001EF8174A51F82330A2FB03231B09154A13601C
S31502001F0870471249124A51F82330A2FB0323114A99
S31502001F18DB08136070470D490D4A51F82330A2FBBE
S31502001F2803230C4A9B08136070470849084A51F86C
S31502001F382330A2FB0323074A5B0813607047034951
S31502001F4851F82330D340D9E700E0014020040022AB
S31502001F58ABAAAAAAB8050022704700BF4AF20351E3
S31502001F68F8B5594B594AB3F8FA43A3F8FA13536822
S31502001F780746D903A4B21AD5544B00255A689203C8
S31502001F8829D50026504A524992F8753092F86D20A2
S31502001F9803F00F0302F00F0251F82330072A00F26A
S31502001FA88E80DFE802F0292929888A828486EFF35F
S31502001FB81086012585F31088536843F480335360ED
S31502001FC853681E20294600F081FB86F310883F4B92
S31502001FD85A689203D5D4EFF31086012181F310884B
S31502001FE85A6842F400325A605B681E2000F06EFBA3
S31502001FF886F310880226C5E7012101FA02F2B3FB2D
S31502002008F2F30121334AA2FB03239B0C03FA01F0E4
S3150200201800F05CFB2C4A92F8753043F0400382F8D4
S31502002028753092F87530DB09FBD07B78264982F841
S315020020386D303B7843F0400382F875303B7882F87E
S31502002048753091F87530DB09FBD135B9BEB91E4B2F
S3150200205844F42544A3F8FA43F8BDEFF310850121A9
S3150200206881F31088194B5A6822F480325A605B68E9
S315020020781E2000F02BFB85F31088002EE7D0EFF325
S315020020881085012181F31088104B5A6822F4003218
S315020020985A605B681E2000F019FB85F310880A4B0C
S315020020A844F42544A3F8FA43F8BD0322A7E7052218
S315020020B8A5E70A22A3E70622A1E708229FE710213D
S315020020C8083A01FA02F29AE700E00140003020409D
S315020020D82004002283DE1B434AF203529FEDBC4BC7
S315020020E89FEDBD5BC24BC348C34930B5C3E908017E
S315020020F8C24CC3499FEDBA6B9FEDBB7B9962A4F8AC
S31502002108FA23A3EC045F83B083ED007FFFF7E0FEBA
S3150200211809230A2284F8502A84F8A23094F8003C4B
S3150200212823B994F8013C9C0700F06382B34C94F8F7
S31502002138003C002B00F052820022B04B83F8012C9F
S3150200214883F8002C0022AD4B83F8362083F8322020
S3150200215893F83C201007FBD540F2234400204FF6A3
S31502002168021140F25142A74DC3F8C850A3F84E4097
S3150200217883F84A00C3F8AC10A3F84C20BFF34F8F7C
S31502002188BFF36F8FA04A516921F400315161C2F839
S315020021985002BFF34F8FBFF36F8F9C490A6822F430
S315020021A840520A60BFF34F8FBFF36F8F0120197D2C
S315020021B8924A60F302011975137DD906FCD4934A33
S315020021C8136843F440531360BFF34F8FBFF36F8F07
S315020021D8A2F57342536913F4003311D1BFF34F8F3B
S315020021E8BFF36F8FC2F85032BFF34F8FBFF36F8FB3
S315020021F8536943F400335361BFF34F8FBFF36F8FB5
S3150200220800237E4A82F82A3092F83C309B06FBD598
S3150200221800227F4B1A701A781A781A785A68FA2A9C
S3150200222804D07C4959605A68FA2AFBD1784B9A68D5
S315020022387D2A04D0784999609A687D2AFBD10522BD
S3150200224842F220116D4B75481862998483F826204C
S31502002258FFF73EFE01211E2000F038FA6C4A536849
S31502002268C3F30903642B84BF01231370FFF730FEFF
S315020022784AF201526A4B1A80BFF35F8F01221A7221
S31502002288BFF35F8F4FF425415C4A198092F8DA3022
S3150200229843F0400382F8DA3092F8DA30DB09FBD0F1
S315020022A8C923032082F8D40082F8DA3092F8DA30A9
S315020022B8524903F0BF0382F8DA3091F8DA30DB09C3
S315020022C8FBD10124802081F8534081F83E3081F801
S315020022D83E0091F87430494A43F0400381F874305D
S315020022E892F87430DB09FBD007204A210A23434CB3
S315020022F882F86C0082F8741082F8743094F874309C
S31502002308DB09FBD14FF0070301A8ADF80430FFF74C
S3150200231825FE94F87630394A43F0400384F876303D
S3150200232892F87630DB09FBD0CA23032082F86E00C6
S3150200233882F8763092F87630304903F0BF0382F895
S31502002348763091F87630DB09FBD191F855302B4A75
S3150200235843F0400381F8553092F85530DB09FBD03B
S31502002368CA23022082F8540082F8553092F8553072
S31502002378224903F0BF0382F8553091F85530DB093C
S31502002388FBD191F857301D4A43F0400381F8573084
S3150200239892F85730DB09FBD0C723002082F8560093
S315020023A882F8573092F85730144903F0BF0382F87F
S315020023B8573091F85730DB09FBD191F85D300F4A57
S315020023C843F0400381F85D302CE000BFAFF3008094
S315020023D8006CDC0200127A000080000000366E01F2
S315020023E80080000000CA9A3B0046C3235543DE1309
S315020023F8200400220084D7170008AF2F00E001400E
S3150200240800389C1C022B010000ED00E000E001E010
S3150200241800C01340FA00001E7D0000E13234233268
S315020024280020004092F85D30DB09FBD0C62082F816
S315020024385C3082F85D0092F85D30704903F0BF03A4
S3150200244882F85D3091F85D30DB09FBD191F878307E
S315020024586A4A43F0400381F8783092F87830DB090B
S31502002468FBD0C923022082F8700082F8783092F8ED
S315020024787830624903F0BF0382F8783091F87830F1
S31502002488DB09FBD191F85F305C4A43F0400381F8DF
S315020024985F3092F85F30DB09FBD0CA2082F85E30E3
S315020024A882F85F0092F85F30544903F0BF0382F85E
S315020024B85F3091F85F30DB09FBD191F877304F4AEC
S315020024C843F0400381F8773092F87730DB09FBD086
S315020024D8CA23042082F86F0082F8773092F87730A0
S315020024E8464903F0BF0382F8773091F87730DB0963
S315020024F8FBD191F85B30414A43F0400381F85B30E7
S3150200250892F85B30DB09FBD0CA23022082F85A0014
S3150200251882F85B3092F85B30384903F0BF0382F8E1
S315020025285B3091F85B30DB09FBD191F8DB30334A3B
S3150200253843F0400381F8DB3092F8DB30DB09FBD04D
S31502002548C523022082F8D50082F8DB3092F8DB3008
S315020025582A4903F0BF0382F8DB3091F8DB30DB0946
S31502002568FBD191F8DC30254A43F0400381F8DC3090
S3150200257892F8DC30DB09FBD0C52082F8D63082F827
S31502002588DC0092F8DC301D4903F0BF0382F8DC3028
S3150200259891F8DC30DB09FBD191F8DE30174A43F0BB
S315020025A8400381F8DE3092F8DE30DB09FBD0C9231E
S315020025B8092082F8D80082F8DE3092F8DE300F4918
S315020025C803F0BF0382F8DE3091F8DE30DB09FBD177
S315020025D84FF42543A1F8FA3303B030BD0121C820D0
S315020025E884F8001C00F072F894F8003C012BFBD129
S315020025F8A2E54FF47A70FFF7AFFCA3E500E00140CD
S31502002608014B53F8200070472004002238B50025F4
S31502002618284C0121C82084F8285000F057F884F87D
S31502002628245094F82430002BFBD194F82430214905
S3150200263843F0020384F8243091F82430C3F34000AF
S315020026489B07F9D41B4A81F8220092F8223003F03C
S31502002658FF00002BF9D192F84030164960F3C713F0
S3150200266882F8403091F84030DB09FBD191F84200FC
S31502002678104A63F3C71081F8420092F84230DB0928
S31502002688FBD192F844000B4963F3C71082F8440061
S3150200269891F84430C3F3C014DB09F9D1012000F0E4
S315020026A8C1F8054B012083F84C4CBDE8384000F0D0
S315020026B889B800BF0020204000E001400000000069
S315020026C8A0F101000028FBD1704700BF1E4B1F4A2C
S315020026D81B6800FB01F1934213D302F1854202F50E
S315020026E8071203F5742302F6834203F23F23A2FB81
S315020026F803239B0CA3FB01314FF0FF30E1B1FFF737
S31502002708DFBF4FF47A7210B4114C4FF0FF30B4FBAE
S31502002718F3F3A1FB02C434B9BCFBF3F080B15DF854
S31502002728044BFFF7CDBFB1FBF3F1A1FB0212002A5E
S31502002738F5D1084620B1F2E71846002BDFD17047DB
S315020027485DF8044B704700BFB805002200127A00F4
S3150200275800CA9A3BF8B5002401260D4B0D4FD3F853
S315020027680021D3F82051154006FA04F32B4204D06F
S3150200277857F82430E0B203B198470134152CF3D147
S31502002788034AC2F81051D2F820312B42FBD1F8BDC8
S3150200279800C000402005002200220D2310B407487D
S315020027A8074C30F8021B02F5C65C013209B144F83F
S315020027B82C10013BF5D15DF8044B7047E03000025E
S315020027C800600040EFF31081012383F31088124B57
S315020027D833F8102092B22AB133F81020013A92B295
S315020027E823F8102033F810309BB293B910B40B4A71
S315020027F80B4CB2F8FA3334F810009BB243F4254373
S3150200280823EA0003A2F8FA3381F310885DF8044B31
S31502002818704781F310887047AC05002200E001403A
S315020028287833000230B4EFF31081012383F3108862
S315020028380E4A32F810309BB26BB90D4C0D4DB4F8F6
S31502002848FA3335F810C09BB243EA0C0343F4254326
S315020028589BB2A4F8FA3332F8103001339BB222F84D
S31502002868103081F3108830BC704700BFAC050022D7
S3150200287800E001407833000200BE704708B500F058
S3150200288837F8FDF7B5FDFEE7F8B5174F05463E687A
S31502002898A6B17C6806EB460604EB860602E00C3413
S315020028A8B4420BD0637AAB42F9D1D4E900020021D3
S315020028B8121A0C3400F03CF9B442F3D1BE6896B150
S315020028C8FC6804EB061602E01034A6420BD0637BC2
S315020028D8AB42F9D1D4E90002A168121A103400F009
S315020028E82FF9A642F3D1F8BD4831000200000000D4
S315020028F8F8B5844A844B5A61BFF34F8FBFF36F8F83
S315020029081B6803F47002B2F5801F00F0D48013F43A
S31502002918600F00F0BC807D4A136823F0040313603D
S31502002928BFF34F8FBFF36F8F4FF47002784B764C1D
S315020029380020C4F88820A360FDF738FC0025FFF7BD
S31502002948CBFB4AF202514FF42542724B0120A3F8FF
S31502002958FA1383F8B05AA3F8FA23FDF727FC6E4B4D
S3150200296883F30A88694B1A68910704D5A268B2F1FB
S31502002978007F00F0A4800020FFF786FFFFF7A8FA81
S31502002988FFF744FE0320FFF74DFF00234FF00E0E1C
S315020029981C464EF001E0614903F10C0221F822407F
S315020029A801330FF007C80320FFF70CFF0320FFF7D8
S315020029B839FF5B4B03205C609C60DC601C61554CF4
S315020029C8FFF700FFD4F8D8339A0747D5D4F8D83397
S315020029D8504CD4F8D8335B0727D5D4F8D83302201D
S315020029E8FDF7E4FB0120FFF74FFFBFF34F8FBFF35D
S315020029F86F8F0024444BC3F85042BFF34F8FBFF387
S31502002A086F8F484B484D5B1BA3424FEAA30605DD71
S31502002A1855F8043B01349847A642F9DCFFF7BCFE99
S31502002A28BDE8F840002000F081B894F81431002B74
S31502002A38D5D00120FFF7F6FE94F8143103F0C0034F
S31502002A48802BF9D10023334A84F8143192F81431D1
S31502002A583F2BFBD80120FFF7B5FEC0E794F81031EB
S31502002A68002BB5D00120FFF7DDFE94F8103103F0F4
S31502002A78C003802BF9D10023264A84F8103192F834
S31502002A8810313F2BFBD80120FFF79CFEA0E71F4A17
S31502002A98136843F004031360BFF34F8FBFF36F8FBE
S31502002AA84FF0E022936843F480339360BFF34F8F6D
S31502002AB8BFF36F8F38E718077FF42DAF27E7012199
S31502002AC81A695869C2F3C302093201FA02F30026E7
S31502002AD80027DB0843F005C0E5E802670FF005C0EA
S31502002AE8C0F3C303093301FA03F34FF00052DB08BC
S31502002AF843F007C0AFF30080E2E802670FF005C0B3
S31502002B0839E700BF01020E0000ED00E000E001E037
S31502002B180000000200E0014020000022000D4040B3
S31502002B2800402040E0330002DC330002704700BF59
S31502002B3802440346934200D1704703F8011BF9E7A2
S31502002B480A44431E914200D1704710B511F8014B51
S31502002B58914203F8014FF9D110BD00007804002212
S31502002B68702B00022831000200000102030C0C0C33
S31502002B780C00000001000000000000000000000038
S31502002B880901000200000000942B0002070401005C
S31502002B9800000000A4040022A82B0002FC30000258
S31502002BA8090200000C040C050C060C0700000000C4
S31502002BB8000000000000000000000000C82B000210
S31502002BC800010000000000220F00FFFF00000001C4
S31502002BD80100000000000000A0860100300000008D
S31502002BE8010C090A0B0C000000000000000000009E
S31502002BF8CD01000200000000042C000201010410AD
S31502002C081100000099000000182C000200000000C4
S31502002C18004000000000000000400000060000001E
S31502002C280040000008000000004000000900000003
S31502002C38004000000C000000450000000D000000E6
S31502002C48000C011C00010000000C011C010100001F
S31502002C58000C011C02010000000C011C030100000B
S31502002C68000C011C04010000000C011C05010000F7
S31502002C78000C011C060100000040000007010000CC
S31502002C884504000009010000040000000A010000D2
S31502002C98104000000B010000000C010B0C010000A3
S31502002CA8000C010B0D010000000C010B0E010000C7
S31502002CB8000C010B0F01000000400000000200009A
S31502002CC8000C011907020000000C010508020000A9
S31502002CD8000C010509020000000001000A020000BA
S31502002CE8000001000B020000000C010B00030000AB
S31502002CF8000C010B01030000000C010B020300008B
S31502002D08040C000003030000400C010F000400003D
S31502002D18400C010F01040000000001120204000029
S31502002D280004010F050400000004010F0604000058
S31502002D38000401130704000000040114080400003B
S31502002D480004010709040000000401070A04000040
S31502002D580004011F0B0400000004010F0E0400000A
S31502002D680004010F0F040000000001130005000013
S31502002D78000C0103010500000004011B0205000006
S31502002D88000C010B03050000000C010B04050000F2
S31502002D98000C010B05050000000C010B06050000DE
S31502002DA8000C010B07050000000C010B08050000CA
S31502002DB8000C010B09050000000C010B0A050000B6
S31502002DC8400401070B050000400401070C0500003A
S31502002DD8000C01190D050000040400000E05000090
S31502002DE8000C01190F050000040C00000006000083
S31502002DF800000104010600000000010402060000AA
S31502002E080000010403060000040000000406000096
S31502002E180404000006060000000C010B0706000069
S31502002E28000C010B08060000000C010B0906000045
S31502002E38000C010B0A060000000C010B0B06000031
S31502002E48000C010B0C060000000C010B0D0600001D
S31502002E58000C010B0E060000000C010B0F06000009
S31502002E680000010F000700000000010F0107000023
S31502002E780000010F020700000000010F030700000F
S31502002E88000C0119070700000000010F08070000DF
S31502002E980404000009070000000C01190A070000D3
S31502002EA8000C01190B070000000C01190C070000A1
S31502002EB8000C01190D070000000C01190E0700008D
S31502002EC8000C01190F070000000C011C0008000085
S31502002ED8000C011C01080000000C011C020800007D
S31502002EE8000C011C03080000000C011C0408000069
S31502002EF8000C011905080000000C0119060800005B
S31502002F08000C011907080000000C011C0808000043
S31502002F180004011B0C080000000C010B0D08000040
S31502002F28000C01130E080000000C01130F08000024
S31502002F38000C011902090000000C0119030900001E
S31502002F48000C011904090000000C01190A09000005
S31502002F58000C01190B090000000C01190C090000EC
S31502002F68000C01190D090000000C01190E090000D8
S31502002F78000C01190F090000000C010B000A0000E1
S31502002F88000C010B010A0000000C010B020A0000EA
S31502002F98000C010B030A0000000C010B040A0000D6
S31502002FA8000C010B050A0000000C010B060A0000C2
S31502002FB8040C0000070A0000000C010B080A0000B6
S31502002FC8000C010B090A0000000C010B0A0A00009A
S31502002FD8000C010B0B0A0000000C010B0C0A000086
S31502002FE8000C010B0D0A0000000C010B0E0A000072
S31502002FF8000C010B0F0A0000000C0119000B00005F
S31502003008000C0119010B0000000C0119020B00004B
S31502003018000C0119030B0000000C0119040B000037
S31502003028000C0119050B0000000C0119060B000023
S31502003038000C0119070B0000000C010B000C000024
S31502003048000C010B010C0000000C010B020C000025
S31502003058000C010B030C0000000C010B040C000011
S31502003068000C010B050C0000000C010B060C0000FD
S31502003078000C010B070C0000000C010B080C0000E9
S31502003088000C010B090C0000000C010B0A0C0000D5
S31502003098000C010B0B0C0000000C010B0C0C0000C1
S315020030A8000C010B0D0C0000000C010B0E0C0000AD
S315020030B8000C010B0F0C0000000C010B000D0000A8
S315020030C8000C0104020D0000000C0104030D0000AF
S315020030D800040114070D0000C402C502C602C70295
S315020030E8030304030503060397039C009D009E0041
S315020030F89F000000250700020504000211040002D1
S31502003108F1060002610400026D0400025104000285
S3150200311881050002B5040002C90400022107000263
S31502003128ED0C00026D1100027911000281110002F4
S31502003138B50B0002050C0002020403040404000095
S315020031480A00000000330002180000008031000265
S3150200315804000000603100020000006800000068F8
S31502003168000000800000008000000070000000706F
S3150200317820000022200000220000006800000068EB
S31502003188000000900001090D0000006800000068B8
S315020031980000007800010B0D0000006800000068BE
S315020031A8000000270001020D000000680000006808
S315020031B8740000020001010D00000080000000807A
S315020031C8000000900001090800000080000000804D
S315020031D80000007800010B08000000800000008053
S315020031E8000000270001020800000080000000809D
S315020031F8740000020001010800000070000000705F
S31502003208000000900001090A00000070000000702A
S315020032180000007800010B0A000000700000007030
S31502003228000000270001020A00000070000000707A
S31502003238740000020001010A0000000000000000FC
S3150200324800000090010109050000000000000000CE
S315020032580000007801010B050000000000000000D4
S31502003268000000270100020500000000000000001F
S315020032787400000201000105000000200000002081
S31502003288000000900101090400000020000000204F
S315020032980000007801010B04000000200000002055
S315020032A800000027010002040000002000000020A0
S315020032B8740000020100010400000022000000223E
S315020032C8000000900001090300000022000000220D
S315020032D80000007800010B03000000220000002213
S315020032E8000000270000020300000022040000225A
S315020032F87400000200000103000000680000006874
S315020033080001000D00000068000000680001000DC1
S315020033180000008000000080000100080000008014
S315020033280000008000010008000000700000007024
S315020033380001000A00000070000000700001000A87
S315020033480000000000000000010000050000002047
S3150200335800000020010000040400002220000022D0
S315020033680000000350040022BC05002200000003EE
S315020033780100020008001000200000004275696C76
S315020033887420776974682052656E6573617320418B
S315020033986476616E63656420466C657869626C65FD
S315020033A820536F667477617265205061636B61673B
S315020033B8652076657273696F6E20362E352E31005A
S311020033C8362E352E3100000000010506ED
S309020033D4F8B500BF81
S309020033D8F8B500BF7D
S309020033DCE5000002FE
S309020033E0BD00000222
S30902C9F040FFFFFFFFFF
S30902C9F044EFFFFFFF0B
S30902C9F0C0FFFFFFFD81
S30902C9F0C4FFFFFFFF7B
S30902C9F120000000001A
S30902C9F1240000000016
S705020028854B
