S01100004C696665447265616D2E73726563AA
S315020000006004002271250002352400026D250002DB
S315020000106D2500026D2500026D2500026D25000288
S315020000200000000000000000000000006D25000234
S315020000306D250002000000006D2500026D250002FC
S31502000040D11000026110000255110002991100023E
S315020000503109000289080002C10900020D0A0002E4
S31502000060111B000229160002BD170002E118000248
S30902000070C5190002A4
S31502000074104000000800002200000000B40500221F
S315020000841C06002284060022000000000000000074
S315020000940000000000000000000000000000000054
S315020000A40000000000000000000000000000000044
S315020000B40000000000000000000000000000000034
S309020000C40000000030
S315020000C80348044B834202D0034B03B118477047D7
S315020000D8540000225400002200000000064B074983
S315020000E8C91A891048BF0131491003D0044B0BB114
S315020000F801481847704700BF5400002254000022E6
S315020001080000000010B5064C237843B9FFF7D8FF64
S31502000118044B13B10448AFF300800123237010BDCA
S31502000128900400220000000028F1C90208B5054B18
S315020001381BB105490548AFF30080BDE80840FFF743
S31502000148CDBF00BF000000009404002228F1C902B6
S31502000158704700BF2DE9F04F2DED048B00224F4B5F
S315020001689DB01968D3F808800A92ADF82C20084683
S3150200017806915968D8F800309847002840F08B80D5
S31502000188474BD3F80890D3E900B1D9F8003058465E
S315020001989847054600287FD19FED429ADFED428AAD
S315020001A840F2A52A414FCDF81CB005EB8504640040
S315020001B8E4B207EE904AB8EEE70A20EE090A02F020
S315020001C8BFFFF7EE007A70EE277A67EEA87AFCEEA2
S315020001D8E77ACDED057A02239DF814B08DF8223020
S315020001E88BEA040383F0A50301224FF4857138468E
S315020001F8B0EE408A8DF82530ADF820A08DF8234060
S315020002088DF824B000F0E8FF4FF47A71322002F03C
S31502000218C9F800224FF48571384600F0DDFF002246
S3150200022840F20461384600F0D7FF072200920623FF
S315020002380AAA08A90798D9F80C60B0474FF47A7148
S31502000248012002F0AFF8012240F20461384600F0BC
S31502000258C3FF4FF47A71012002F0A4F8B7EEC80A78
S3150200026823462A468DED020B1149CDF800B00CA89B
S3150200027802F0D2FA0CA802F00CFB0CA90246D8F836
S315020002880830069898474FF47A714FF46D70013525
S3150200029802F088F889E7FEE7FEE700BF4437000266
S315020002A80C37000235FA8E3C0000FF42AC040022ED
S315020002B8E0360002022800D070470249024801F0DF
S315020002C86BB800BF84370002AC04002208B5FFF7FA
S315020002D841FF002008BD00BF03460020C3E90612FD
S315020002E8704700BF844610B4406A836823F44013FB
S315020002F88360DCF82440A36C5800FCD5A36823F07D
S315020003081003A360DCF82440237FC3F30010DB0646
S31502000318FAD4CCE90412A36843F01013A3605DF87B
S31502000328044B704784460020CCE90B32CCF82810DF
S31502000338704700BF4FF0FF330020C1E90033704712
S315020003488B0784461DD5426A936823F4401393604B
S31502000358426A936C5800FCD5936823F010039360A5
S31502000368DCF82400037FC3F30012DB06FAD4104636
S31502000378CCF81420CB0703D500231846CCF81C303A
S3150200038870470620F6E700BF0346002210B4DC6970
S3150200039810460C60DA615DF8044B70470620704718
S315020003A830B40124164D530902F01F0C203304FA07
S315020003B80CF445F82340BFF34F8FBFF36F8F114BF1
S315020003C802F5C65C53F82C4024F4803443F82C40DA
S315020003D853F82C300901002AC9B207DB0A4B154427
S315020003E885F8001343F8220030BC7047074B02F029
S315020003F80F0423441976044B43F8220030BC704795
S3150200040800E100E00060004070050022FCEC00E01C
S31502000418F0B5C46A85B005460F4694466E46B4B131
S3150200042894E80F0086E80F002B6A20461B78A7601F
S31502000438236084F804C02B6BE360AB6A9847EC6AC6
S315020004481CB196E80F0084E80F0005B0F0BD3446EB
S31502000458EAE700BFF8B5394B42689A426BD10446BF
S31502000468426A936823F440139360426A936823F0BE
S3150200047810039360426A137FC3F30015DB06FAD4AE
S315020004880121236A2E4A93F90730580903F01F03FC
S31502000498203001FA03F342F82030BFF34F8FBFF33F
S315020004A86F8F236A93F90930580903F01F0301FA7B
S315020004B803F3203042F82030BFF34F8FBFF36F8F1C
S315020004C8606A836823F480338360236A93F905306C
S315020004D8580903F01F0301FA03F3203042F82030CB
S315020004E8BFF34F8FBFF36F8F236A93F90B30580907
S315020004F803F01F0301FA03F3203042F82030BFF35A
S315020005084F8FBFF36F8FEFF3108681F310884FF08A
S315020005180043276A0B4A97F800C0506823FA0CF37F
S315020005280343536053681E2001F03CFF86F310888C
S3150200053865602846F8BD0720F8BD00BF4249435307
S3150200054800E100E000302040002370B5026AD56958
S3150200055883606B7C03B970BD184B044693F854301C
S3150200056803F00F03072B24D8DFE803F00404042161
S315020005781F191B1D01269E40104B93F8550000F0CB
S315020005880F0001F0A9FEB0FBF6F00D4B1A686B7C62
S3150200059802FB03F3B3FBF0F30133A36070BD03263A
S315020005A8EAE70526E8E70A26E6E70826E4E706264E
S315020005B8E2E71026083B9E40DEE700BF00E0014066
S315020005C8B0050022F8B5002704460E46416A8D6832
S315020005D825F4441222F011028A600761FFF7B4FF7C
S315020005E8636A326825F440151A61636A38469D6063
S315020005F8F8BD00BF0620704700222DE9F041012709
S315020006080B78027003F5800303F556531B02436207
S3150200061801624B690D4683628B690446C0E90B2366
S315020006288378CE6967F3010383704B78934214BFCC
S315020006383A460222837862F30103837091F90B200A
S31502000648897AFFF7ADFE95F905202979FFF7A8FE05
S3150200065895F90720A979FFF7A3FE95F90920297AC2
S31502000668FFF79EFEEFF3108887F310884FF00041DC
S315020006782A787B4BD1405A6822EA01025A605B68A3
S315020006881E20394601F08EFE88F310884FF48062E8
S31502000698636A9A606B78E978EA691B02890301F44E
S315020006A8804103F440730B4311785068090601F040
S315020006B840710B435178C90389B20B43517B4905F3
S315020006C801F400110B43616A43F480534B611378BA
S315020006D8991EB94240F2BD800368616A0B61117BBB
S315020006E8AB7801F0030141F0300133B1022B14BF9C
S315020006F84FF440734FF480731943937800201B0715
S3150200070803F080530B43616ACB600123616A8861F7
S3150200071829788B40C3F3090313B1636A51495962B5
S315020007280025937BD17B127C01F01F0103F00103A4
S3150200073802F01F0243EA0123616A43EA02430B639A
S315020007482046C4E90455C4E90655FFF7FDFE70893B
S31502000758626A4549A0819166226A444B92F905204C
S3150200076802F5C65153F8210065F3104043F82100FB
S3150200077853F82110BFF35F8F012102F01F005209BF
S31502000788920002F1604202F5614201FA00F0C2F8F3
S3150200079880011060226A92F90B2002F5C65053F8BE
S315020007A8206065F3104643F8206053F82000BFF333
S315020007B85F8F02F01F005209920002F1604201FAAD
S315020007C800F002F56142C2F880011060226A92F9CD
S315020007D8072002F5C65053F8206065F3104643F821
S315020007E8206053F82000BFF35F8F02F01F00520902
S315020007F8920002F1604201FA00F002F56142C2F883
S3150200080880011060226A92F9092002F5C65053F84F
S31502000818206065F3104643F8206053F82030BFF392
S315020008285F8F53099B0002F01F0203F16043914058
S3150200083803F56143C3F8801119600D4A636A9A6029
S31502000848626A137FDB07FCD50A4B00206360BDE8AA
S31502000858F0810949022B094B18BF0B463DE700BF39
S315020008680030204000001F1F1000079D0060004056
S31502000878110401004249435304FF00FF24FF00FF0D
S3150200088838B5EFF30383103B254A5BB203F5C6512D
S3150200089852F8210020F4803042F8210052F8212033
S315020008A8204A52F82340236A1B69B3B1636903B12C
S315020008B838BD636A9D68A06825F4801545F400155D
S315020008C818BB00219D60A36A2161002BF0D0204647
S315020008D8BDE838408022FFF79BBD6269636A002A39
S315020008E8E8D0A278216902F00302022A11D00A7816
S315020008F81A71A278D4E9041302F003029B1A11446E
S31502000908C4E90413002BD3D1D3E701F045FD636A8A
S31502000918D7E70A8822F4DC4292B25A60E9E700BFB6
S31502000928006000407005002210B582B0EFF3038321
S31502000938103B1F4A5BB203F5C65152F8210020F458
S31502000948803042F8210052F821201A4A52F82340F0
S31502000958A27802F00303022B636A0CBF196819789E
S31502000968E3690CBFC1F30801C9B2019143B9A36A8D
S31502000978B3B10422204602B0BDE81040FFF748BDD5
S3150200098802F0030201A9A06901F076FFD4E9062163
S31502000998A37803F003031A44C91AC4E9062109B164
S315020009A802B010BDA36A002BFAD00122E2E700BF0B
S315020009B8006000407005002210B5EFF303830F4A6A
S315020009C8103B5CB252F82400426A936823F440133F
S315020009D823F010039360836A1BB102220021FFF7FA
S315020009E817FD074A04F5C65352F8231021F480313D
S315020009F842F8231052F8233010BD00BF70050022BA
S31502000A080060004038B5EFF303831D4A103B5CB221
S31502000A1852F824008378456A03F00303022B0CBFBD
S31502000A2829682978AA6C08BFC1F30801C2F30073C2
S31502000A38C2F3006C4FEA031343EA4C13C2F3C062D3
S31502000A4843EAC20C18BFC9B2DB06624604D5AB6CD0
S31502000A581B0458BF4CF04002AB6E43F0C853AB665A
S31502000A68836A0BB1FFF7D4FC064A04F5C65352F85B
S31502000A78231021F4803142F8231052F8233038BD6E
S31502000A88700500220060004084460020CCE9093245
S31502000A98CCF82010704700BF30B5436A85B00446CB
S31502000AA88C4601ADABB193E8070085E8070062689A
S31502000AB81846127883F804C01A60A26A9A60236AF2
S31502000AC89847636A1BB195E8070083E8070005B0F3
S31502000AD830BD2B46EBE700BF002238B583680446D3
S31502000AE89A60436893F90220002A0EDB01213248F4
S31502000AF8530902F01F02203301FA02F240F82320BA
S31502000B08BFF34F8FBFF36F8F636893F90120002AF3
S31502000B180EDB01212848530902F01F02203301FA8D
S31502000B2802F240F82320BFF34F8FBFF36F8F63683B
S31502000B38012193F9043020485A0903F01F03203291
S31502000B4801FA03F340F82230BFF34F8FBFF36F8FDA
S31502000B58636893F903305A0903F01F0301FA03F392
S31502000B68203240F82230BFF34F8FBFF36F8FEFF377
S31502000B78108581F310884FF0004360680F4A0078A9
S31502000B88C34050680343536053681E2001F00AFCB1
S31502000B9885F3108863685A6922B1936810681B6ADC
S31502000BA8984763681B691BB19A681868136A98475D
S31502000BB80020206038BD00BF00E100E00030204080
S31502000BC800222DE9F84F0B78416003F5800303F5FF
S31502000BD856531B0283608B690D460362CB69044632
S31502000BE8C0E909234B698BB14FF400215A68126890
S31502000BF811605A68816812685160D3E9011218684F
S31502000C08126890470646002840F0FE802B6993B189
S31502000C184FF000615A68126811605968A26809683B
S31502000C2804328A60D3E901121868126890470646A8
S31502000C38002840F0368141F20326626840F2032317
S31502000C48507B116A002818BF3346507A967A0128D3
S31502000C5806BF43F000734FF080770027002E23F07B
S31502000C68010608BF3346D67A23F0020C002E08BFC7
S31502000C7863468E7843EAC61646F4403A002800F0E0
S31502000C88C6804FF400284FF00009EFF3108B0121BC
S31502000C9881F310884FF000401378D840874B5A6882
S31502000CA822EA00025A605B681E2001F07BFB8BF386
S31502000CB810880022A3689A60A268137F03F0FF01D6
S31502000CC8002BFAD14FF0100C01207D4B5362A3681A
S31502000CD87C4A5E61A368C3F814A0A368C3F810909F
S31502000CE8A368C3F80CC0A368C3F81880A3689A66F9
S31502000CF8A3681867A3689F6095F90130002B80F2F4
S31502000D089D80714E95F90230002B25DBAA7903F1F5
S31502000D1860411201D2B201F5614181F800236B4AA2
S31502000D2846F8234003F5C65152F8210020F48030D4
S31502000D3842F8210052F82120BFF35F8F01215A0998
S31502000D48920003F01F0302F1604202F5614201FAC2
S31502000D5803F3C2F880311360EB7995F903201B017E
S31502000D68002ADBB2C0F2988002F1604101F56141C6
S31502000D7881F80033554B46F8224002F5C65153F81E
S31502000D88210020F4803043F8210053F82130BFF3C4
S31502000D985F8F012153099B0002F01F0203F1604392
S31502000DA803F5614301FA02F2C3F880211A6095F944
S31502000DB804202B7A002A67DB1B0102F16041DBB2B1
S31502000DC801F5614181F80033404B46F8224002F5AD
S31502000DD8C65153F8210020F4803043F8210053F815
S31502000DE82130BFF35F8F012153099B0002F01F02D6
S31502000DF803F1604303F5614301FA02F2C3F8802165
S31502000E081A600026324B23603046BDE8F88F4B78CD
S31502000E1891F8009003F003004FEA0929C97849EAD4
S31502000E280059C3F3800349EA0319002943D001F1A3
S31502000E38FF384FEA086848F4102826E76A7903F16A
S31502000E4860471201204ED2B207F5614787F80023A0
S31502000E581E4A46F8234003F5C65752F827C061F3DF
S31502000E68104C42F827C052F82720BFF35F8F03F0D1
S31502000E781F025B099B0003F16043904003F561433F
S31502000E88C3F8800118603DE7124902F00F001B0102
S31502000E98DBB201440B7697E70F4902F00F000B54B9
S31502000EA868E76B69002BAFD09A681868136A984787
S31502000EB83046BDE8F88F4FF40028E6E600302040B9
S31502000EC800809F1F1000079D7005002200600040E9
S31502000ED853494353FCEC00E014ED00E0F8B51D4617
S31502000EE883689B6813F0110343D11646C0E905339C
S31502000EF8C0E903164268C56113690446D3B1456160
S31502000F081369A8B25A681268D0815A681268002909
S31502000F1831D04FF0020CD0786CF38300D0705A6847
S31502000F2812685160D3E90112186809685268904735
S31502000F38F0B96268536953B14EB1A5615369324635
S31502000F48996818688E68ABB20021B04780B92369E0
S31502000F58002B4CD063681A69002A4BD04FF0111146
S31502000F68A26893680B43936063681A6962B10020AA
S31502000F78F8BD0820F8BDD0782E4F61F38300D070F3
S31502000F885A6812685760CDE75A69002AEFD1226972
S31502000F98002AECD0012193F9013027485A0903F0B7
S31502000FA81F03203201FA03F340F82230BFF34F8FB2
S31502000FB8BFF36F8F6369E269934209D2D4E90212D9
S31502000FC882B3D35C63F0FF034B60636901336361E9
S31502000FD86268517A012914D092F90130012203F08C
S31502000FE81F0015495B09824041F82320BFE74FF0ED
S31502000FF81011B5E75B691149002B18BF4FF01111A3
S31502001008AEE7E1690129E7D99942E5D9D4E902218E
S3150200101861B1CB5C63F0FF035360636962680133B5
S315020010286361D9E76FF0FF034B60CEE76FF0FF030A
S315020010385360F2E71405002200E100E01100010006
S315020010488C46134600216246FFF748BF1346002224
S31502001058FFF744BFFFF742BFEFF30383103B184A7B
S315020010685BB203F5C65152F8210020F4803042F8EB
S31502001078210052F82120134A52F823305A69D969B5
S315020010888A420AD2D3E90201A9B18A5C62F0FF0256
S3150200109842605A69D96901325A618A4200D0704758
S315020010A81A69002AFBD19A68936823F4801343F4D9
S315020010B80013936070476FF0FF024260E9E700BFD2
S315020010C8006000407005002210B4EFF30383103B62
S315020010D81C4A5BB203F5C65152F8210020F480304F
S315020010E842F8210052F82120174A52F8233059694A
S315020010F8DA6991420AD2D3E90202F2B1525C62F08B
S31502001108FF0242605969DA69013159619969914266
S3150200111807D298681A6900684C1C9C615054D3E936
S315020011280612914206D19A68936823F4881343F407
S31502001138001393605DF8044B70476FF0FF0242603C
S31502001148E0E700BF006000407005002210B5EFF32B
S3150200115803830D4A103B5CB252F8240001218268CF
S31502001168936823F4401323F011039360FFF794FC6A
S31502001178064A04F5C65352F8231021F4803142F880
S31502001188231052F8233010BD70050022006000407B
S3150200119838B5EFF303834FF080750D4A103B5CB206
S315020011A852F8240004218268936823F44413936056
S315020011B883689D66FFF770FC064A04F5C65352F823
S315020011C8231021F4803142F8231052F8233038BD17
S315020011D87005002200600040002001238242CAB244
S315020011E803FA02F39AB24FEA034308BF1A460B0AF6
S315020011F85B0103F1804303F580039A60704700BFE1
S315020012082DE9F84F0388DBB14FF0000A80464FF00C
S315020012180109DFF8D4B00024314D4FEACA07D8F8DD
S31502001228043035F8022BD919898891420AD001343B
S31502001238032CF4D1B8F800300AF1010A5345EAD86A
S31502001248BDE8F88FDB5909FA04F603F0B853B3F18F
S31502001258807F244BF6B293F84C2C12D0324230D10E
S3150200126804F120021BF81230DB09E0D01BF8123019
S31502001278012123F08003C8200BF8123001F092F8FE
S31502001288D5E7324210D004F120021BF81230DB09EE
S31502001298CDD11BF81230012143F08003C8200BF888
S315020012A8123001F07FF8C2E7012001F027F90D4B51
S315020012B8012093F84C2C324383F84C2C01F0EEF8BB
S315020012C8E1E7012001F01AF9064B012093F84C2CAC
S315020012D822EA060283F84C2C01F0E0F8C0E700BFC8
S315020012E8B83C000200E0014000202040F8B506465E
S315020012F8FFF786FFEFF31082012383F31088234F4B
S315020013083B681BB9402022490B7508753B680133B7
S315020013183B6082F31088338800211BB31D4D08E019
S315020013281B01134445F82340328801318BB29A4295
S3150200133818D9736853F8314003EBC1029288E00367
S315020013484FEA1223D2B2EBD502EB031055F820E08E
S3150200135824F4803C2EF4803E45F820E01B0145F833
S3150200136820C0DEE7EFF31082012383F310883B687F
S3150200137813B13B68013B3B603B681BB980200449BB
S315020013880B75087582F31088F8BD00BF6C0500223C
S31502001398000D40400008404008B5034B036008466C
S315020013A8FFF7A4FF002008BD54524F5030B5836B97
S315020013B883B004460A466D46A3B193E8030085E85E
S315020013C80300E16B1A7119601846636B9847A36BA1
S315020013D81BB195E8030083E80300002384F82B3049
S315020013E803B030BD2B46ECE770B4002440220369F3
S315020013F81C7003691A70026913785B06FCD5C02350
S315020014081370036802695B6A804D1B794FF0000C02
S3150200141843F0E0031374036802695B6AB324DB785A
S3150200142843F0E0035374036802695B6A9B781B0105
S3150200143803F0700343F008039370036802695B6A5A
S315020014481E78012E5E7814BF0423052343EA460359
S31502001458DBB2D37003685B68AB4214BF7722F7220C
S3150200146803695A71036983F806C00369DC7191F945
S3150200147811204B7B6245C0F2AA801B0102F160442F
S31502001488DBB204F5614484F80033614C614B44F8DD
S31502001498220002F5C65553F8256026F4803643F82D
S315020014A8256053F82530BFF35F8F012553099B004A
S315020014B802F01F0203F1604303F5614305FA02F2E3
S315020014C8C3F880211A6091F90F204B7B002AC0F2DB
S315020014D895801B0102F16045DBB205F5614585F889
S315020014E800334C4B44F8220002F5C65553F82560E2
S315020014F826F4803643F8256053F82530BFF35F8F0C
S31502001508012553099B0002F01F0203F1604303F50C
S31502001518614305FA02F2C3F880211A6091F9102094
S315020015284B7B002A63DB1B0102F16045DBB205F542
S31502001538614585F80033374B44F8220002F5C65553
S3150200154853F8256026F4803643F8256053F825308B
S31502001558BFF35F8F012553099B0002F01F0203F1B7
S31502001568604303F5614305FA02F2C3F880211A6063
S3150200157891F90E204B7B002A31DB1B0102F16041F7
S31502001588DBB201F5614181F80033224B44F82200AF
S3150200159802F5C65153F8214024F4803443F8214019
S315020015A853F82130BFF35F8F012153099B0002F0E4
S315020015B81F0203F1604303F5614301FA02F2C3F81D
S315020015C880211A609F2203691A7070BC7047124CF8
S315020015D802F00F051B01DBB22C44237655E70E49B0
S315020015E802F00F051B01DBB229440B76CDE70B4D42
S315020015F81B0102F00F06DBB2AB559CE7074D1B0138
S3150200160802F00F06DBB2AB556BE700BF40420F0094
S315020016187005002200600040FCEC00E014ED00E0DA
S3150200162810B582B0EFF30383103B5F4A5BB203F552
S31502001638C65352F8231021F4803142F8231052F887
S315020016482330EFF30383594A103B5BB252F8234027
S3150200165894F82D305BBBA369022B22D9E369012BCF
S315020016680ED12269137943F0100313712269137993
S3150200167843F0080313712269137923F010031371D7
S3150200168823685B6ADB79002B3ED101222369DB7C66
S31502001698DBB28DF807309DF8073084F82D2002B0AA
S315020016A810BD2269137943F040031371D6E7E36943
S315020016B8002BF4D02268526AD279FAB9032B17D0D2
S315020016C8022B26D0012B34D02269236AD17C626987
S315020016D8D154D4E907320132013BC4E90732002B5F
S315020016E8DDD121690A7963F386120A7102B010BD47
S315020016F82269137943F040031371E5E70521204671
S31502001708FFF754FEE369D9E705212046FFF74EFEA7
S31502001718BBE72269137943F010031371226913791F
S3150200172843F0080313712269137923F01003137126
S31502001738CAE794F82A2072B322681D4892F90F2044
S31502001748510902F01F0203FA02F2203140F8212061
S31502001758BFF34F8FBFF36F8F04202169CA7942F016
S315020017688002CA7121690A7942F010020A71216956
S315020017780A7922F008020A7121690A7922F010020E
S315020017880A712269507021694A7922F001024A7166
S3150200179884F82C3098E708212269537A03F0F70374
S315020017A85372236959708FE7006000407005002262
S315020017B800E100E010B5EFF30383103B434A5BB246
S315020017C803F5C65352F8231021F4803142F8231048
S315020017D852F82330EFF303833D4A103B5BB252F8CB
S315020017E8234094F82730002B40D194F82930002B57
S315020017F83BD123685B6ADB792BB194F82B3013B99A
S31502001808236A002B5CD1E3692169002B41D1CB798C
S31502001818C02223F08003CB71216901E0013A02D08C
S31502001828CB79DB09FAD12368284A93F9103003F5F4
S31502001838C65352F8231021F4803142F8231052F885
S315020018482330236893F91030002B09DB01215A094A
S31502001858204803F01F03603201FA03F340F82230EE
S315020018682269D37943F04003D37110BD94F8263028
S31502001878032B1CD094F8242023699A7494F8282000
S3150200188894F827300132013B84F8282084F827305F
S3150200189810BD236A6269D35C8B74D4E907320132BC
S315020018A8013BC4E90732002BDFD12169AFE794F87F
S315020018B82830022BDED194F83030002BDAD110BD55
S315020018C805212046FFF772FD9DE700BF0060004034
S315020018D87005002200E100E038B5EFF30383344ACD
S315020018E8103B5BB252F8234023685B6ADB79002B14
S315020018F84BD194F829301BB194F82730012B52D0DA
S31502001908E369E3B12169C023CA7922F04002CA71A8
S31502001918216901E0013B02D0CA795206FAD4EFF3F3
S315020019280383103B234A5BB203F5C65352F82310CE
S3150200193821F4803142F8231052F8233038BD94F846
S315020019482A203AB3012022681B4D92F90F20510929
S3150200195802F01F02203100FA02F245F82120BFF3F5
S315020019684F8FBFF36F8F4FF0040C2169CA7942F08B
S315020019788002CA71226982F801C021694A7963F331
S3150200198800024A7184F82C00BCE705212046FFF7BD
S315020019980DFDAEE708212269537A03F0F703537265
S315020019A823695970AEE794F83030002BAAD0A7E71E
S315020019B8700500220060004000E100E038B5EFF350
S315020019C803834F4A103B5BB252F823000269537AEB
S315020019D8517ADC0601F0E00151725FFA83FC03F0EA
S315020019E803022CD50369597849064ED400240125E9
S315020019F880F82B50DC710168FFF7F6FCB32290F8E9
S31502001A082630816980F82830036980F82C40016203
S31502001A18C46180F82A402946DA71FFF7C7FCEFF35A
S31502001A280383103B374A5BB203F5C65352F82310B9
S31502001A3821F4803142F8231052F8233038BD002AA7
S31502001A485CD11CF0080F11D0C369002B45D190F860
S31502001A582B30002B41D1B32290F829100369C1F12A
S31502001A680301C9B2DA71FFF7A1FCD8E790F82C2076
S31502001A780CF0040342B3002BD1D0C369002B3BD12F
S31502001A8890F82B30002B37D1E5E7002AAED15A78E9
S31502001A98C2F380115206D4D5082280F82B105A7048
S31502001AA8036801695A6A94791378527943EAC41326
S31502001AB843EA021343F00203DBB2CB70026953799D
S31502001AC843F001035371AAE7002BA8D003685B6AA7
S31502001AD8DB79002BA3D00421C5E70023B32190F8B4
S31502001AE826508469026980F82C3080F828500462EE
S31502001AF8C36180F82A30D1710121B4E7036975E719
S31502001B087005002200600040F0B5234B8BB05D6F74
S31502001B18EA435A67EFF30383103B204A5BB203F5A5
S31502001B28C65152F8210020F4803042F8210052F8BA
S31502001B3821201B4A52F8234063694BB300212269CC
S31502001B4802912A40E0690092A769A2680191CDE94B
S31502001B580320FFB1BC463E46BCE80F00EE4605AD83
S31502001B680FC5DCF800302B60BEE80F000FC6DEF8A2
S31502001B780030CCF80030636938469847A4693CB10E
S31502001B880DF1140CBCE80F000FC4DCF800502560F8
S31502001B980BB0F0BD6F46EFE70080344000600040AE
S31502001BA8700500221D4A92F82630928CDBB202F0AA
S31502001BB80F02A2F1080103292BD8DFE801F020164B
S31502001BC80C021749174A51F82330A2FB03231B09B3
S31502001BD8154A136070471249124A51F82330A2FB7C
S31502001BE80323114ADB08136070470D490D4A51F861
S31502001BF82330A2FB03230C4A9B081360704708494B
S31502001C08084A51F82330A2FB0323074A5B081360EC
S31502001C187047034951F82330D340D9E700E0014021
S31502001C2860040022ABAAAAAAB0050022704700BF28
S31502001C384AF20351F8B5594B594AB3F8FA43A3F88D
S31502001C48FA1353680746D903A4B21AD5544B00258A
S31502001C585A68920329D50026504A524992F8753095
S31502001C6892F86D2003F00F0302F00F0251F82330A9
S31502001C78072A00F28E80DFE802F0292929888A825B
S31502001C888486EFF31086012585F31088536843F49A
S31502001C988033536053681E20294600F083FB86F37F
S31502001CA810883F4B5A689203D5D4EFF31086012168
S31502001CB881F310885A6842F400325A605B681E2023
S31502001CC800F070FB86F310880226C5E7012101FAA7
S31502001CD802F2B3FBF2F30121334AA2FB03239B0C64
S31502001CE803FA01F000F05EFB2C4A92F8753043F0D5
S31502001CF8400382F8753092F87530DB09FBD07B78A1
S31502001D08264982F86D303B7843F0400382F87530F5
S31502001D183B7882F8753091F87530DB09FBD135B915
S31502001D28BEB91E4B44F42544A3F8FA43F8BDEFF3B3
S31502001D381085012181F31088194B5A6822F48032E2
S31502001D485A605B681E2000F02DFB85F31088002E72
S31502001D58E7D0EFF31085012181F31088104B5A68FA
S31502001D6822F400325A605B681E2000F01BFB85F3E2
S31502001D7810880A4B44F42544A3F8FA43F8BD032213
S31502001D88A7E70522A5E70A22A3E70622A1E7082272
S31502001D989FE71021083A01FA02F29AE700E00140A9
S31502001DA8003020406004002283DE1B43000000004E
S31502001DB84AF203529FEDBC4B9FEDBD5BC24BC34833
S31502001DC8C34930B5C3E90801C24CC3499FEDBA6B92
S31502001DD89FEDBB7B9962A4F8FA23A3EC045F83B058
S31502001DE883ED007FFFF7DEFE09230A2284F8502AD4
S31502001DF884F8A23094F8003C23B994F8013C9C0775
S31502001E0800F06382B34C94F8003C002B00F0528237
S31502001E180022B04B83F8012C83F8002C0022AD4B2C
S31502001E2883F8362083F8322093F83C201007FBD536
S31502001E3840F2234400204FF6021140F25142A74DC8
S31502001E48C3F8C850A3F84E4083F84A00C3F8AC104A
S31502001E58A3F84C20BFF34F8FBFF36F8FA04A516987
S31502001E6821F400315161C2F85002BFF34F8FBFF31C
S31502001E786F8F9C490A6822F440520A60BFF34F8F5B
S31502001E88BFF36F8F0120197D924A60F3020119751B
S31502001E98137DD906FCD4934A136843F4405313605E
S31502001EA8BFF34F8FBFF36F8FA2F57342536913F4D3
S31502001EB8003311D1BFF34F8FBFF36F8FC2F8503281
S31502001EC8BFF34F8FBFF36F8F536943F400335361E8
S31502001ED8BFF34F8FBFF36F8F00237E4A82F82A30F3
S31502001EE892F83C309B06FBD500227F4B1A701A7873
S31502001EF81A781A785A68FA2A04D07C4959605A68B4
S31502001F08FA2AFBD1784B9A687D2A04D078499960D7
S31502001F189A687D2AFBD1052242F220116D4B75483B
S31502001F281862998483F82620FFF73CFE01211E20B9
S31502001F3800F038FA6C4A5368C3F30903642B84BF6A
S31502001F4801231370FFF72EFE4AF201526A4B1A80DA
S31502001F58BFF35F8F01221A72BFF35F8F4FF42541D9
S31502001F685C4A198092F8DA3043F0400382F8DA3094
S31502001F7892F8DA30DB09FBD0C923032082F8D400B1
S31502001F8882F8DA3092F8DA30524903F0BF0382F85F
S31502001F98DA3091F8DA30DB09FBD10124802081F8A6
S31502001FA8534081F83E3081F83E0091F87430494A30
S31502001FB843F0400381F8743092F87430DB09FBD0A1
S31502001FC807204A210A23434C82F86C0082F87410CF
S31502001FD882F8743094F87430DB09FBD14FF00703AA
S31502001FE801A8ADF80430FFF723FE94F87630394A93
S31502001FF843F0400384F8763092F87630DB09FBD05A
S31502002008CA23032082F86E0082F8763092F8763078
S31502002018304903F0BF0382F8763091F87630DB094F
S31502002028FBD191F855302B4A43F0400381F85530DD
S3150200203892F85530DB09FBD0CA23022082F85400F5
S3150200204882F8553092F85530224903F0BF0382F8D8
S31502002058553091F85530DB09FBD191F857301D4AB6
S3150200206843F0400381F8573092F85730DB09FBD02A
S31502002078C723002082F8560082F8573092F8573064
S31502002088144903F0BF0382F8573091F85730DB0939
S31502002098FBD191F85D300F4A43F0400381F85D3079
S315020020A82CE000BFAFF30080006CDC0200127A005D
S315020020B80080000000366E010080000000CA9A3BCC
S315020020C80046C3235543DE13600400220084D71753
S315020020D80008AF2F00E0014000389C1C022B0100CB
S315020020E800ED00E000E001E000C01340FA00001E27
S315020020F87D0000E1323423320020004092F85D3040
S31502002108DB09FBD0C62082F85C3082F85D0092F8C3
S315020021185D30704903F0BF0382F85D3091F85D3097
S31502002128DB09FBD191F878306A4A43F0400381F81B
S31502002138783092F87830DB09FBD0C923022082F87E
S31502002148700082F8783092F87830624903F0BF035B
S3150200215882F8783091F87830DB09FBD191F85F3054
S315020021685C4A43F0400381F85F3092F85F30DB093E
S31502002178FBD0CA2082F85E3082F85F0092F85F30A0
S31502002188544903F0BF0382F85F3091F85F30DB09E8
S31502002198FBD191F877304F4A43F0400381F8773004
S315020021A892F87730DB09FBD0CA23042082F86F0045
S315020021B882F8773092F87730464903F0BF0382F8FF
S315020021C8773091F87730DB09FBD191F85B30414AD9
S315020021D843F0400381F85B3092F85B30DB09FBD0B1
S315020021E8CA23022082F85A0082F85B3092F85B30E2
S315020021F8384903F0BF0382F85B3091F85B30DB099C
S31502002208FBD191F8DB30334A43F0400381F8DB30E7
S3150200221892F8DB30DB09FBD0C523022082F8D50011
S3150200222882F8DB3092F8DB302A4903F0BF0382F8E2
S31502002238DB3091F8DB30DB09FBD191F8DC30254A3B
S3150200224843F0400381F8DC3092F8DC30DB09FBD03E
S31502002258C52082F8D63082F8DC0092F8DC301D49B7
S3150200226803F0BF0382F8DC3091F8DC30DB09FBD1DE
S3150200227891F8DE30174A43F0400381F8DE3092F8CF
S31502002288DE30DB09FBD0C923092082F8D80082F8A0
S31502002298DE3092F8DE300F4903F0BF0382F8DE30F3
S315020022A891F8DE30DB09FBD14FF42543A1F8FA3366
S315020022B803B030BD0121C82084F8001C00F072F872
S315020022C894F8003C012BFBD1A2E54FF47A70FFF794
S315020022D8ADFCA3E500E00140014B53F8200070472E
S315020022E86004002238B50025284C0121C82084F84C
S315020022F8285000F057F884F8245094F82430002B1C
S31502002308FBD194F82430214943F0020384F824309F
S3150200231891F82430C3F340009B07F9D41B4A81F88D
S31502002328220092F8223003F0FF00002BF9D192F82E
S315020023384030164960F3C71382F8403091F84030AE
S31502002348DB09FBD191F84200104A63F3C71081F802
S31502002358420092F84230DB09FBD192F844000B495D
S3150200236863F3C71082F8440091F84430C3F3C014EB
S31502002378DB09F9D1012000F0C1F8054B012083F8E9
S315020023884C4CBDE8384000F089B800BF0020204018
S3150200239800E0014000000000A0F101000028FBD186
S315020023A8704700BF1E4B1F4A1B6800FB01F1934290
S315020023B813D302F1854202F5071203F5742302F6D6
S315020023C8834203F23F23A2FB03239B0CA3FB0131A7
S315020023D84FF0FF30E1B1FFF7DFBF4FF47A7210B466
S315020023E8114C4FF0FF30B4FBF3F3A1FB02C434B92E
S315020023F8BCFBF3F080B15DF8044BFFF7CDBFB1FB30
S31502002408F3F1A1FB0212002AF5D1084620B1F2E740
S315020024181846002BDFD170475DF8044B704700BFA2
S31502002428B005002200127A0000CA9A3BF8B50024C9
S3150200243801260D4B0D4FD3F80021D3F82051154034
S3150200244806FA04F32B4204D057F82430E0B203B15B
S3150200245898470134152CF3D1034AC2F81051D2F821
S3150200246820312B42FBD1F8BD00C0004018050022DE
S3150200247800220D2310B40748074C30F8021B02F558
S31502002488C65C013209B144F82C10013BF5D15DF85E
S31502002498044B7047583C000200600040EFF310817D
S315020024A8012383F31088124B33F8102092B22AB113
S315020024B833F81020013A92B223F8102033F810307C
S315020024C89BB293B910B40B4A0B4CB2F8FA3334F8F0
S315020024D810009BB243F4254323EA0003A2F8FA3319
S315020024E881F310885DF8044B704781F310887047B2
S315020024F8A405002200E00140F03E000230B4EFF3EA
S315020025081081012383F310880E4A32F810309BB2E9
S315020025186BB90D4C0D4DB4F8FA3335F810C09BB2B1
S3150200252843EA0C0343F425439BB2A4F8FA3332F880
S31502002538103001339BB222F8103081F3108830BC78
S31502002548704700BFA405002200E00140F03E0002E9
S3150200255808B500F089F90C2203461A604FF0FF30DD
S3150200256808BD00BF00BE704708B500F035F8FDF794
S31502002578ADFEFEE7F8B5174F05463E68A6B17C687C
S3150200258806EB460604EB860602E00C34B4420BD090
S31502002598637AAB42F9D1D4E900020021121A0C344B
S315020025A800F05AF9B442F3D1BE6896B1FC6804EB5E
S315020025B8061602E01034A6420BD0637BAB42F9D171
S315020025C8D4E90002A168121A103400F055F9A6429D
S315020025D8F3D1F8BDC03C0002F8B5844A844B5A616F
S315020025E8BFF34F8FBFF36F8F1B6803F47002B2F508
S315020025F8801F00F0D48013F4600F00F0BC807D4A7F
S31502002608136823F004031360BFF34F8FBFF36F8F72
S315020026184FF47002784B764C0020C4F88820A360E9
S31502002628FDF748FE0025FFF7C3FB4AF202514FF4B5
S315020026382542724B0120A3F8FA1383F8B05AA3F87D
S31502002648FA23FDF737FE6E4B83F30A88694B1A683D
S31502002658910704D5A268B2F1007F00F0A480002099
S31502002668FFF788FFFFF79EFAFFF73CFE0320FFF706
S3150200267845FF00234FF00E0E1C464EF001E061495D
S3150200268803F10C0221F8224001330FF007C8032098
S31502002698FFF704FF0320FFF731FF5B4B03205C6063
S315020026A89C60DC601C61554CFFF7F8FED4F8D83301
S315020026B89A0747D5D4F8D833504CD4F8D8335B07A1
S315020026C827D5D4F8D8330220FDF7F4FD0120FFF709
S315020026D851FFBFF34F8FBFF36F8F0024444BC3F8EC
S315020026E85042BFF34F8FBFF36F8F484B484D5B1B6A
S315020026F8A3424FEAA30605DD55F8043B0134984781
S31502002708A642F9DCFFF7B4FEBDE8F840002000F067
S3150200271881B894F81431002BD5D00120FFF7EEFECC
S3150200272894F8143103F0C003802BF9D10023334AFD
S3150200273884F8143192F814313F2BFBD80120FFF7A5
S31502002748ADFEC0E794F81031002BB5D00120FFF793
S31502002758D5FE94F8103103F0C003802BF9D100237B
S31502002768264A84F8103192F810313F2BFBD8012003
S31502002778FFF794FEA0E71F4A136843F004031360A9
S31502002788BFF34F8FBFF36F8F4FF0E022936843F486
S3150200279880339360BFF34F8FBFF36F8F38E7180705
S315020027A87FF42DAF27E701211A695869C2F3C302DC
S315020027B8093201FA02F300260027DB0843F005C0B6
S315020027C8E5E802670FF005C0C0F3C303093301FA4F
S315020027D803F34FF00052DB0843F007C0AFF3008063
S315020027E8E2E802670FF005C039E700BF01020E00F2
S315020027F800ED00E000E001E00000000200E0014018
S3150200280860000022000D404000402040CC400002FB
S31502002818C8400002704700BF0EB400B59CB06FF006
S3150200282800411DAB02900690079104910848094998
S3150200283853F8042B059102A90068019300F086F962
S31502002848029B00221A701CB05DF804EB03B07047B5
S31502002858040000220802FFFF02440346934200D105
S31502002868704703F8011BF9E7014B1868704700BF68
S3150200287804000022704770470A44431E914200D161
S31502002888704710B511F8014B914203F8014FF9D17F
S3150200289810BD034613F8012B002AFBD1181A01387A
S315020028A87047000038B50546002941D051F8043C66
S315020028B80C1F002BB8BFE41800F0E0F81D4A136895
S315020028C833B9636014602846BDE8384000F0DCB8C6
S315020028D8A34208D9206821188B4201BF19685B6890
S315020028E809182160EDE71A465B680BB1A342FAD9CB
S315020028F811685018A0420BD1206801445018116083
S315020029088342E0D118685B68084453601060DAE7CE
S3150200291802D90C232B60D6E7206821188B4202BF06
S3150200292819685B680918636008BF21605460CAE7C2
S3150200293838BD00BFF806002270B50F4E0C46054694
S31502002948316811B900F0A8FB30602146284600F02C
S31502002958A3FB431C03D14FF0FF34204670BDC41CB1
S3150200296824F00304A042F8D0211A284600F094FB6A
S315020029780130F2D1EFE700BFF40600222DE9F84351
S31502002988CD1C064625F0030508350C2D38BF0C2547
S31502002998002D01DBA94204D90C2333600020BDE8CF
S315020029A8F883DFF8D48000F069F8D8F800301C46BE
S315020029B844BB29463046FFF7BFFF431C044658D19D
S315020029C8D8F800402746002F43D1002C4BD0236865
S315020029D83946304604EB030900F05EFB814542D1D5
S315020029E8216830466D1A2946FFF7A6FF01303AD00C
S315020029F823682B442360D8F800305A6862BBC8F8AB
S31502002A0800700FE02268521B20D40B2A17D96119CD
S31502002A18A342256018BF5960636808BFC8F800104A
S31502002A2862514B60304600F02FF804F10B00231D6B
S31502002A3820F00700C21A1CBF1B1AA350AFE7626830
S31502002A48A3420CBFC8F800205A60EBE72346646825
S31502002A58AEE73C467F68B6E71A465B68A342FBD1F7
S31502002A6800235360DEE70C233046336000F00CF88F
S31502002A7894E70560D6E700BFF80600220148FFF78B
S31502002A88F9BE00BFF00600220148FFF7F4BE00BFF8
S31502002A98F00600222DE9F0471F468E6882460C464C
S31502002AA8BE4290460B682DD8B1F90C2012F4906FED
S31502002AB826D06569096905EB4505A3EB01097B1C67
S31502002AC805EBD5754B446D109D4238BF1D4653051F
S31502002AD827D52946FFF752FF064660B34A462169BB
S31502002AE8FFF7CAFEA38923F4906343F08003A38108
S31502002AF826614E446561A5EB090526603E46A5603A
S31502002B08BE4200D93E4632464146206800F0AAFA3D
S31502002B18A36800209B1BA360236833442360BDE897
S31502002B28F0872A4600F0D6FA06460028E0D121693F
S31502002B385046FFF7B7FE0C234FF0FF30CAF80030B5
S31502002B48A38943F04003A381E9E700002DE9F04F8A
S31502002B5898468B899DB007461B060D46144610D526
S31502002B680B6973B94021FFF709FF2860286130B95C
S31502002B780C233B604FF0FF301DB0BDE8F08F4023B9
S31502002B886B610023CDF80C804FF00109DFF8A081B4
S31502002B98099320238DF8293030238DF82A302346CD
S31502002BA89A4613F8012B0AB1252AF9D1BAEB040B76
S31502002BB80BD05B46224629463846FFF76BFF0130A3
S31502002BC800F0A780099A5A4409929AF80030002B15
S31502002BD800F09F8000234FF0FF320AF1010A0493A6
S31502002BE807938DF853301A93CDE9052354460522E7
S31502002BF84F4814F8011B00F05FFA049AD8B9D006B8
S31502002C0844BF20238DF85330110744BF2B238DF878
S31502002C1853309AF800302A2B15D0079A54460020CA
S31502002C284FF00A0C214611F8013B303B092B4BD9D0
S31502002C38B0B1079214E0A0EB0803A24609FA03F31F
S31502002C4813430493D2E7039B191D1B68002B0391B8
S31502002C58BBBF5B4242F0020207930793B8BF0492D6
S31502002C6823782E2B0AD163782A2B32D1039B02347E
S31502002C781A1D1B6843EAE37303920593DFF8C0A0A3
S31502002C8803222178504600F017FA38B1A0EB0A0061
S31502002C984022049B013482401343049314F8011B17
S31502002CA8062224488DF8281000F006FA002836D0A5
S31502002CB8214B1BBB039B073323F0070308330393FC
S31502002CC8099B334409936AE70CFB02320C4601203E
S31502002CD8A8E7002301344FF00A0C1946059320464B
S31502002CE810F8012B303A092A03D9002BC6D00591D0
S31502002CF8C4E70CFB012104460123F0E703AB2A468D
S31502002D0804A9384600930D4BAFF30080421C0646D1
S31502002D18D6D1AB895B063FF52DAF09982CE703ABF5
S31502002D282A4604A938460093044B00F07DF8EDE7DD
S31502002D38FA3E0002043F0002000000009D2A00023B
S31502002D48003F00022DE9F047164698468A6807466C
S31502002D580B690C46DDF820909342B8BF13463360E0
S31502002D6891F843200AB1013333602368990642BFBA
S31502002D78336802333360256815F0060506D104F177
S31502002D88190AE36832689B1AAB422BDC94F8433083
S31502002D982268003B18BF0123920630D404F143028D
S31502002DA841463846C847013023D023681A3454F8B6
S31502002DB80A2C03F00603042B0ABF54F80E5C0025FE
S31502002DC833684FF0000608BFED1A54F8123C08BFE4
S31502002DD825EAE5759342C4BF9B1AED18B5421AD186
S31502002DE8002008E00123524641463846C8470130CA
S31502002DF803D14FF0FF30BDE8F0870135C1E7E1188E
S31502002E085A1C30200233224481F8430094F84510B4
S31502002E1882F84310C2E70123224641463846C8478C
S31502002E280130E6D00136D9E72DE9FF470F7E9146F4
S31502002E3880460C46782F9A460C9E01F1430207D823
S31502002E48622F0AD8002F00F0D180582F00F0B880E0
S31502002E5804F1420684F842703AE0A7F16303152B9F
S31502002E68F6D801A151F823F0C92E0002DD2E000280
S31502002E78592E0002592E0002592E0002592E00021E
S31502002E88DD2E0002592E0002592E0002592E00028A
S31502002E98592E0002DB2F0002072F0002952F00028F
S31502002EA8592E0002592E0002FD2F0002592E000249
S31502002EB8072F0002592E0002592E00029D2F0002EA
S31502002EC833681A1D1B68326004F1420684F84230E0
S31502002ED801239CE033682068191D3160060601D576
S31502002EE81D6803E04506FBD5B3F90050002D03DA49
S31502002EF82D236D4284F8433058480A2311E021688D
S31502002F083368080653F8045B02D4490648BFADB2D3
S31502002F186F2F3360514814BF0A230823002184F80F
S31502002F2843106668002EA66005DB21682E4321F051
S31502002F38040121604BD01646B5FBF3F103FB11578A
S31502002F48C75D06F8017D2F460D46BB42F4D9082B0C
S31502002F580BD12368DF0708D5236961689942DEBF6A
S31502002F68302306F8013C06F1FF36921B22614B46D6
S31502002F7803AA21464046CDF800A0FFF7E3FE01303A
S31502002F884AD14FF0FF3004B0BDE8F087236843F01A
S31502002F982003236078273248236884F845701F0681
S31502002FA8316851F8045B02D45F0648BFADB231609E
S31502002FB8D90744BF43F0200323601DB11023ADE7B0
S31502002FC82648E9E7236823F020032360F6E7164636
S31502002FD8BDE733682568181D616930602E061B68CF
S31502002FE801D5196002E06806FBD51980002316464A
S31502002FF82361BCE7336800211A1D32601E686268C5
S31502003008304600F059F808B1801B60606368236196
S31502003018002384F84330AAE72369324649464046E4
S31502003028D0470130ADD023689B0713D4E068039BD1
S315020030389842B8BF1846A6E7012332464946404693
S31502003048D04701309DD00135E36803995B1AAB423C
S31502003058F2DCEBE7002504F11906F5E70B3F00025F
S315020030681C3F0002884210B501EB020402D98442D1
S31502003078234607D8431EA14208D011F8012B03F8AC
S31502003088012FF8E7024401468A4200D110BD13F81F
S31502003098014D02F8014DF7E738B50023054D044600
S315020030A808462B60FFF754FA431C02D12B6803B17A
S315020030B8236038BDEC060022C9B20346024410B5A5
S315020030C89342184601D1002003E0047801338C426A
S315020030D8F6D110BD2DE9F041074614460D4621B931
S315020030E81146BDE8F041FFF749BC2AB92546FFF764
S315020030F8D9FB2846BDE8F08100F01AF88442064654
S3150200310802D8B4EB500FF4D821463846FFF736FCFE
S31502003118804608B94546ECE7B4422246294628BF06
S315020031283246FFF7A9FB29463846FFF7BBFBF1E70C
S3150200313851F8043C181F002BBCBF0B58C018704727
S3150200314830B510EE104AB7EEC07A83B0C4F30A530C
S31502003158B3F57D7F19D2B3F5667F27EE075B6CD38D
S3150200316827EE052B6C4B93ED1A3B93ED186B93EDFB
S31502003178164BA5EE036BA2EE047B25EE025BA6EECA
S31502003188057BB7EEC70B03B030BD40F22E42934221
S315020031985BD8614991ED086B91ED0A5B01F170020A
S315020031A827EE066BFDEEC66B16EE903A03F50003A4
S315020031B81B1606EE903A13F0020FB8EEE66B08BF3E
S315020031C80A46D807A6EE457B27EE076B1BD403F003
S315020031D8030301EBC30192ED1A2B92ED184B92ED04
S315020031E8163B91ED005B27EE057BA6EE024B27EE1A
S315020031F8065BA5EE037B26EE055BA4EE057BB7EE22
S31502003208C70B03B030BD92ED0E2B92ED0C0B26EEDA
S31502003218065BA6EE020B92ED143B92ED127B92ED43
S31502003228104BA6EE037BA5EE040B26EE056BA7EE66
S31502003238060BB7EEC00B03B030BD14F0FF4FF0EE2D
S31502003248406A46D0B0EE660ADBE7B3F5FF6F3BD2BB
S31502003258C4F38360314AC4F31603C4F3C25502EBBE
S31502003268800152F8202043F40003086AAB4009693A
S31502003278A0FB035003FB02F2E3FB010202F1005139
S315020032888D0F01F04041511A05EBD47400F0F6F99E
S31502003298234B14F0020FA3F170029FED1D6B41EC54
S315020032A8170B08BF1346E90727EE067B27EE076BBF
S315020032B814D402EBC40293ED1A2B93ED184B93ED3B
S315020032C8163B92ED005B8EE703B0BDE8304000F096
S315020032D837B8B7EEC55B8DED015AB3E793ED0E1B12
S315020032E893ED0C7B26EE064BA6EE017B93ED142B93
S315020032F893ED125B93ED103BA6EE025BA4EE037B05
S3150200330826EE046BA5EE067BB7EEC70B79E700BF80
S31502003318182D4454FB21193C903F0002303F00020D
S315020033280040000210B52DED028BB0EE408A04462D
S31502003338FFF79AFA0460B0EE480ABDEC028B10BD9C
S31502003348F0EE407A30EE407AF4EE677A87EE070AB4
S31502003358F1EE10FA02D62120FFF7E4BF704700BF4C
S3150200336881F0004102E000BF83F0004330B54FEA26
S3150200337841044FEA430594EA050F08BF90EA020F93
S315020033881FBF54EA000C55EA020C7FEA645C7FEA26
S31502003398655C00F0E2804FEA5454D4EB5555B8BF49
S315020033A86D420CDD2C4480EA020281EA030382EABA
S315020033B8000083EA010180EA020281EA0303362D4C
S315020033C888BF30BD11F0004F4FEA01314FF4801C1F
S315020033D84CEA113102D0404261EB410113F0004F31
S315020033E84FEA03334CEA133302D0524263EB4303E8
S315020033F894EA050F00F0A780A4F10104D5F1200E86
S315020034080DDB02FA0EFC22FA05F2801841F10001E0
S3150200341803FA0EF2801843FA05F359410EE0A5F1B4
S3150200342820050EF1200E012A03FA0EFC28BF4CF0E5
S31502003438020C43FA05F3C01851EBE37101F000459B
S3150200344807D54FF0000EDCF1000C7EEB00006EEBA8
S315020034580101B1F5801F1BD3B1F5001F0CD3490832
S315020034685FEA30004FEA3C0C04F101044FEA445289
S3150200347812F5800F80F09A80BCF1004F08BF5FEA10
S31502003488500C50F1000041EB045141EA050130BDF0
S315020034985FEA4C0C404141EB0101013C28BFB1F502
S315020034A8801FE9D291F0000F04BF01460020B1FA4D
S315020034B881F308BF2033A3F10B03B3F120020CDA20
S315020034C80C3208DD02F1140CC2F10C0201FA0CF0FE
S315020034D821FA02F10CE002F11402D8BFC2F1200C63
S315020034E801FA02F120FA0CFCDCBF41EA0C01904019
S315020034F8E41AA2BF01EB0451294330BD6FEA040462
S315020035081F3C1CDA0C340EDC04F11404C4F120024C
S3150200351820FA04F001FA02F340EA030021FA04F35E
S3150200352845EA030130BDC4F10C04C4F1200220FAB5
S3150200353802F001FA04F340EA0300294630BD21FAF3
S3150200354804F0294630BD94F0000F83F4801306BFB9
S3150200355881F480110134013D4EE77FEA645C18BFAD
S315020035687FEA655C29D094EA050F08BF90EA020F44
S3150200357805D054EA000C04BF1946104630BD91EA3C
S31502003588030F1EBF0021002030BD5FEA545C05D13F
S315020035984000494128BF41F0004130BD14F580047E
S315020035A83CBF01F5801130BD01F0004545F0FE41F2
S315020035B841F470014FF0000030BD7FEA645C1ABF27
S315020035C8194610467FEA655C1CBF0B46024650EA5E
S315020035D8013406BF52EA033591EA030F41F400218A
S315020035E830BD00BF90F0000F04BF0021704730B510
S315020035F84FF4806404F132044FF000054FF00001E5
S3150200360850E700BF90F0000F04BF0021704730B5A5
S315020036184FF4806404F1320410F0004548BF40427A
S315020036284FF000013EE700BF42004FEAE2014FEACF
S3150200363831014FEA02701FBF12F07F4393F07F4FAA
S3150200364881F06051704732F07F4208BF704793F0AD
S315020036587F4F04BF41F40021704730B54FF46074C0
S3150200366801F0004521F000411CE700BF50EA0102C3
S3150200367808BF704730B54FF000050AE050EA01026C
S3150200368808BF704730B511F0004502D5404261EBDC
S3150200369841014FF4806404F132045FEA915C3FF41D
S315020036A8D8AE4FF003025FEADC0C18BF03325FEABA
S315020036B8DC0C18BF033202EBDC02C2F1200300FA6B
S315020036C803FC20FA02F001FA03FE40EA0E0021FA90
S315020036D802F11444BDE600BF5350492053696E6592
S315020036E85B256C755D3A20783D25337520793D2535
S315020036F83375202873696E3D252B2E3266290D0AED
S3150200370800000000B404002218370002A03C0002A0
S3150200371800000102030C0C0C0C0000000100000062
S31502003728000000000000000059010002000000002D
S315020037383C3700020704010000000000E0040022F2
S3150200374850370002743C0002090200000C040C0502
S315020037580C060C0700000000000000000000000034
S31502003768000000007037000200010000000000227D
S315020037780F00FFFF00000001010000009900000091
S315020037889037000200000000004000000000000020
S31502003798004000000600000000400000080000008B
S315020037A80040000009000000004000000C00000074
S315020037B8450000000D000000000C011C000100007D
S315020037C8000C011C01010000000C011C0201000092
S315020037D8000C011C03010000000C011C040100007E
S315020037E8000C011C05010000000C011C060100006A
S315020037F8004000000701000045040000090100001E
S31502003808040000000A010000104000000B0100003D
S31502003818000C010B0C010000000C010B0D0100004D
S31502003828000C010B0E010000000C010B0F01000039
S315020038380040000000020000000C01190702000007
S31502003848000C010508020000000C0105090200002F
S31502003858000001000A020000000001000B0200003D
S31502003868000C010B00030000000C010B0103000011
S31502003878000C010B02030000040C00000303000005
S31502003888400C010F00040000400C010F0104000067
S3150200389800000112020400000004010F05040000E2
S315020038A80004010F060400000004011307040000C7
S315020038B800040114080400000004010709040000BA
S315020038C8000401070A0400000004011F0B0400009B
S315020038D80004010F0E0400000004010F0F0400008B
S315020038E80000011300050000000C01030105000099
S315020038F80004011B02050000000C010B0305000071
S31502003908000C010B04050000000C010B0505000064
S31502003918000C010B06050000000C010B0705000050
S31502003928000C010B08050000000C010B090500003C
S31502003938000C010B0A050000400401070B050000F4
S31502003948400401070C050000000C01190D050000D2
S31502003958040400000E050000000C01190F05000002
S31502003968040C000000060000000001040106000025
S31502003978000001040206000000000104030600001C
S315020039880400000004060000040400000606000005
S31502003998000C010B07060000000C010B08060000CC
S315020039A8000C010B09060000000C010B0A060000B8
S315020039B8000C010B0B060000000C010B0C060000A4
S315020039C8000C010B0D060000000C010B0E06000090
S315020039D8000C010B0F0600000000010F0007000093
S315020039E80000010F010700000000010F0207000096
S315020039F80000010F03070000000C01190707000069
S31502003A080000010F0807000004040000090700006F
S31502003A18000C01190A070000000C01190B07000027
S31502003A28000C01190C070000000C01190D07000013
S31502003A38000C01190E070000000C01190F070000FF
S31502003A48000C011C00080000000C011C0108000003
S31502003A58000C011C02080000000C011C03080000EF
S31502003A68000C011C04080000000C011905080000DE
S31502003A78000C011906080000000C011907080000CD
S31502003A88000C011C080800000004011B0C080000B9
S31502003A98000C010B0D080000000C01130E080000B3
S31502003AA8000C01130F080000000C0119020900009E
S31502003AB8000C011903090000000C01190409000091
S31502003AC8000C01190A090000000C01190B09000073
S31502003AD8000C01190C090000000C01190D0900005F
S31502003AE8000C01190E090000000C01190F0900004B
S31502003AF8000C010B000A0000000C010B010A000071
S31502003B08000C010B020A0000000C010B030A00005C
S31502003B18000C010B040A0000000C010B050A000048
S31502003B28000C010B060A0000040C0000070A00003C
S31502003B38000C010B080A0000000C010B090A000020
S31502003B48000C010B0A0A0000000C010B0B0A00000C
S31502003B58000C010B0C0A0000000C010B0D0A0000F8
S31502003B68000C010B0E0A0000000C010B0F0A0000E4
S31502003B78000C0119000B0000000C0119010B0000D2
S31502003B88000C0119020B0000000C0119030B0000BE
S31502003B98000C0119040B0000000C0119050B0000AA
S31502003BA8000C0119060B0000000C0119070B000096
S31502003BB8000C010B000C0000000C010B010C0000AC
S31502003BC8000C010B020C0000000C010B030C000098
S31502003BD8000C010B040C0000000C010B050C000084
S31502003BE8000C010B060C0000000C010B070C000070
S31502003BF8000C010B080C0000000C010B090C00005C
S31502003C08000C010B0A0C0000000C010B0B0C000047
S31502003C18000C010B0C0C0000000C010B0D0C000033
S31502003C28000C010B0E0C0000000C010B0F0C00001F
S31502003C38000C010B000D0000000C0104020D00002F
S31502003C48000C0104030D000000040114070D000016
S31502003C58C402C502C602C702030304030503060318
S31502003C6897039C009D009E009F000000010600022B
S31502003C78E1020002ED020002CD0500023D03000248
S31502003C88490300022D0300025D04000291030002AB
S31502003C98A5030002FD050002C90B00024910000235
S31502003CA8551000025D100002910A0002E10A0002A4
S31502003CB802040304040400000A000000783E00021D
S31502003CC818000000F83C000204000000D83C00027C
S31502003CD80000006800000068000000800000008004
S31502003CE800000070000000706000002260000022E0
S31502003CF80000006800000068000000900001090D3D
S31502003D0800000068000000680000007800010B0D42
S31502003D180000006800000068000000270001020D8C
S31502003D280000006800000068740000020001010D2E
S31502003D3800000080000000800000009000010908D1
S31502003D4800000080000000800000007800010B08D7
S31502003D580000008000000080000000270001020821
S31502003D6800000080000000807400000200010108C3
S31502003D780000007000000070000000900001090AAF
S31502003D8800000070000000700000007800010B0AB5
S31502003D980000007000000070000000270001020AFF
S31502003DA80000007000000070740000020001010AA1
S31502003DB80000000000000000000000900101090553
S31502003DC800000000000000000000007801010B0559
S31502003DD800000000000000000000002701000205A4
S31502003DE80000000000000000740000020100010546
S31502003DF800000020000000200000009001010904D4
S31502003E0800000020000000200000007801010B04D9
S31502003E180000002000000020000000270100020424
S31502003E2800000020000000207400000201000104C6
S31502003E380000002200000022000000900001090391
S31502003E4800000022000000220000007800010B0397
S31502003E5800000022000000220000002700000203E2
S31502003E680000002254000022740000020000010330
S31502003E7800000068000000680001000D00000068EC
S31502003E88000000680001000D0000008000000080AC
S31502003E980001000800000080000000800001000800
S31502003EA800000070000000700001000A00000070A7
S31502003EB8000000700001000A000000000000000077
S31502003EC80100000500000020000000200100000497
S31502003ED85400002260000022000000039004002221
S31502003EE8FC06002200000003010002000800100080
S31502003EF82000232D302B2000686C4C006566674530
S31502003F084647003031323334353637383941424341
S31502003F1844454600303132333435363738396162F2
S31502003F286364656600000000A2000000F9A20000B2
S31502003F3883F9A2006E83F9A24E6E83F9444E6E830C
S31502003F4815444E6E2915444EFC29154427FC29159D
S31502003F585727FC29D15727FCF5D1572734F5D157CE
S31502003F68DD34F5D1C0DD34F5DBC0DD3462DBC0DD1E
S31502003F789562DBC0999562DB3C999562433C9995BB
S31502003F8890433C994190433C000000000000F03FFA
S31502003F98000000000000F0BF000000000000F0BFB3
S31502003FA8000000000000F03F83C8C96D305F64411D
S31502003FB8182D4454FB21F93F000000000000F03F91
S31502003FC81C620CFDFFFFDFBF198F06E15355A53FA3
S31502003FD89D359AE887C056BFC3F87B024393F93EDC
S31502003FE803A695595455C5BFC40B23057610813FC0
S31502003FF824CF7437EB9429BF000000000000F03F7D
S31502004008000000000000F0BF000000000000F0BF42
S31502004018000000000000F03F83C8C96D305F6441AC
S31502004028182D4454FB21F93F000000000000F0BFA0
S315020040381C620CFDFFFFDF3F198F06E15355A5BF32
S315020040489D359AE887C0563FC3F87B024393F9BE6B
S3150200405803A695595455C5BFC40B23057610813F4F
S3150200406824CF7437EB9429BF4275696C742077693B
S3150200407874682052656E6573617320416476616E59
S3150200408863656420466C657869626C6520536F6661
S315020040987477617265205061636B61676520766526
S315020040A87273696F6E20362E352E3100362E352EF6
S30D020040B83100000000010506BB
S309020040C0F8B500BF88
S309020040C4F8B500BF84
S309020040C835010002B4
S309020040CC0D010002D8
S30D020040D0CAE7FF7F01000000B0
S30902C9F040FFFFFFFFFF
S30902C9F044EFFFFFFF0B
S30902C9F0C0FFFFFFFD81
S30902C9F0C4FFFFFFFF7B
S30902C9F120000000001A
S30902C9F1240000000016
S7050200257162
